00058NUEVOBANCO                          0000000000000000000000000000000000000000000000000000000000000000000000000000000000000000000000000000000000000000000000000000000000000000000000000000000000000000000000000000000000000000000000000000000000000000000000000000000000000000000000000000000000020210903
01058300999915010115010100000000000000000000000OFICINA PRINCIPAL                  Av. Pershing- Ex Faustino Sanchez Carrión No. 465 Int. 801 - 901                LIMA                               l18 LIMA                               1150122N00    6107979                             A2021090300000
01058301999902180102180100000000000000000000000AG.NUEVO CHIMBOTE                  URB MARISCAL LUZURRIAGA MZ C LT. 12 CALLE INTI RAYMI                            CHIMBOTE                               CHIMBOTE                           0021809N00     312849                             A2021090300000
01058302999904010104010100000000000000000000000AG. AREQUIPA AV EJERCITO Nº 1004   AV,EJERCITO 1004                                                                AREQUIPA                               AREQUIPA                           0040103N00     258903                             A2021090300000
01058303999904010104010100000000000000000000000AG. AREQUIPA AV.EJERCITO Nº 308    AV.EL EJERCITO 308                                                              AREQUIPA                               AREQUIPA                           1040126N00     257138                             A2021090300000
01058304999906010106010100000000000000000000000AG.CAJAMARCA                       AV LOS HEROES 382 386                                                           CAJAMARCA                              CAJAMARCA                          0060101N00     523325                             A2021090300000
01058305999908010108010100000000000000000000000AG.SANTIAGO EJERCITO               AV DEL EJERCITO LT 26 DISTRITO DE SANTIAGO                                      SANTIAGO                               CUSCO                              0080106N00     255747                             A2021090300000
01058306999910010110010100000000000000000000000AG. HUANUCO                        JR.HUALLAYCO 860 HUANUCO                                                        HUANUCO                                HUANUCO                            0100101N00     672329                             A2021090300000
01058307999911020111020100000000000000000000000AG.CHINCHA                         MARISCAL BENAVIDES 373 -383                                                     CHINCHA                                CHINCHA                            0110201N00     267311                             A2021090300000
01058308999911010111010100000000000000000000000AG.NAZCA                           CALLE LIMA 429 NAZCA                                                            NAZCA                                  NAZCA                              0110301N00                                        A2021090300000
01058309999913010113010100000000000000000000000AG.TRUJILLO AMERICA                AV AMERICA NORTE 1395 URB.LAS QUINTANAS                                         TRUJILLO                               TRUJILLO                           1130101N00     225656                             A2021090300000
01058310999913010113010100000000000000000000000AG.TRUJILLO ESPAÑA                 AV ESPAÑA 2319                                                                  TRUJILLO                               TRUJILLO                           0130101N00     225669                             A2021090300000
01058311999914010114010100000000000000000000000AG.MOSHOQUEQUE                     AV. BOLIVAR 360 MOSHOQUEQUE MZ U LT 6                                           CHICLAYO                               CHICLAYO                           1140105N00     250798                             A2021090300000
01058312999915010115010100000000000000000000000AG.EL AGUSTINO                     AV RIVA AGUERO 1442 UR. EL POPULAR                                              LIMA                                   LIMA                               1150111N00    6130135                             A2021090300000
01058313999915010115010100000000000000000000000AG GARZON                          AV. GARZON 1319                                                                 LIMA                                   LIMA                               1150113N00    6130110                             A2021090300000
01058314999915010115010100000000000000000000000AG. EMANCIPACION                   AV EMANCIPACION Nº 184 TDA 104                                                  LIMA                                   LIMA                               1150101N00    6130109                             A2021090300000
01058315999915010115010100000000000000000000000AG PRO                             AV. ALFREDO MENDIOLA MZ F LT 19 URB PRO LOS OLIVOS                              LIMA                                   LIMA                               1150117N00    6130171                             A2021090300000
01058316999915010115010100000000000000000000000AG.HUANDOY                         AV.NARANJAL 1449 OVALO HUANDOY                                                  LIMA                                   LIMA                               1150117N00    6130078                             A2021090300000
01058317999915010115010100000000000000000000000AG.PUENTE PIEDRA                   MZ C LTE 8 URB SANTO DOMINGO-PUENTE PIEDRA                                      LIMA                                   LIMA                               1150125N00    6130134                             A2021090300000
01058318999915010115010100000000000000000000000AG.SAN MARTIN                      AV PERU 3612                                                                    LIMA                                   LIMA                               1150135N00    6130123                             A2021090300000
01058319999915010115010100000000000000000000000AG.VILLA EL SALVADOR 2             VELASCO ALVARADO 613 MZ A LT 12 GRUPO 9 SECTOR 2                                LIMA                                   LIMA                               1150142N00    6130114                             A2021090300000
01058320999915010115010100000000000000000000000AG. VILLA MARIA                    AV.SALVADOR ALLENDE 200 ESQ.CON AV.JOSE CARLOS MARIATEGUI                       LIMA                                   LIMA                               1150143N00                                        A2021090300000
01058321999920010120010100000000000000000000000AG.CATACAOS                        JR.COMERCIO 625 SUB ITE 1(UNIDAD 1-2)                                           PIURA                                  PIURA                              1200105N00     371443                             A2021090300000
01058322999921110121110100000000000000000000000AG.JULIACA                         MARIANO NUÑEZ 654                                                               JULIACA                                PUNO                               1211101N00     326319                             A2021090300000
01058323999921110121110100000000000000000000000AG.JULIACA II                      JR.MOQUEGUA 790 CON RAUL PORRAS BARRENECHEA 497                                 SAN ROMAN                              PUNO                               0211101N00     322833                             A2021090300000
01058324999902180102180100000000000000000000000AG.CHIMBOTE                        AV.JOSE PARDO ESQUINA AV.AVIACION                                               CHIMBOTE                               ANCASH                             1021801N00 14 6107979                             A2021090300000
01058325999911010111010100000000000000000000000AG.ICA                             CALLE MUNICIPALIDAD 233                                                         ICA                                    ICA                                0110101N00 56  213312                             A2021090300000
01058326999913010113010100000000000000000000000AG.TRUJILLO AYACUCHO               |AYACUCHO 676 680 684 686 CERCADO                                               TRUJILLO                               TRUJILLO                           1130101N00 44  209012                             A2021090300000
01058327999914010114010100000000000000000000000AG.BALTA                           AV.BALTA 176 179                                                                CHICLAYO                               CHICLAYO                           0140101N00 74  206690                             A2021090300000
01058328999915020115020100000000000000000000000AG.BARRANCA                        JR.MARISCAL CASTILLA 229-235-237                                                BARRANCA                               BARRANCA                           0150201N00     613090                             A2021090300000
01058329999915010115010100000000000000000000000AG.VENTANILLA                      CARRET.VENTANILLA MZ A LTE 2-3-4 URB PEDRO CUEVA                                CALLAO                                 LIMA                               1070106N00    5531797                             A2021090300000
01058330999915050115050100000000000000000000000AG.CAÑETE                          AV MARISCAL BENAVIDES 430                                                       CAÑETE                                 CAÑETE                             0150501N00                                        A2021090300000
01058331999915080115080100000000000000000000000AG. HUACHO                         AV 28 DE JULIO 430 450 458 CIUDAD DE HUACHO                                     HUACHO                                 HUACHO                             0150801N00    2326513                             A2021090300000
01058332999915060115060100000000000000000000000AG.HUARAL                          AV.CAHUAS 381                                                                   HUARAL                                 HUARAL                             0150601N00    2462232                             A2021090300000
01058333999915010115010100000000000000000000000AG.ATE                             AV NICOLAS AYLLON 5574 URB BARBADILLO|                                          LIMA                                   LIMA                               1150103N00    3514175                             A2021090300000
01058334999915010115010100000000000000000000000AG.COMAS EKT                       AV TUPAC AMARU 3129 3131                                                        LIMA                                   LIMA                               1150110N00    5375217                             A2021090300000
01058335999915010115010100000000000000000000000AG LOS OLIVOS                      AV ALFREDO MENDIOLA 3663 3665 3669                                              LIMA                                   LIMA                               1150117N00    5231942                             A2021090300000
01058336999915010115010100000000000000000000000AG LURIN                           ANTIGUA PANAMERICANA SUR KM 36 LURIN                                            LIMA                                   LIMA                               1150119N00    6130102                             A2021090300000
01058337999915010115010100000000000000000000000AG PUENTE PIEDRA                   PANAMERICANA NORTE KM 31 PTE PDRA S/N CDRA 6                                    LIMA                                   LIMA                               1150125N00    5486526                             A2021090300000
01058338999915010115010100000000000000000000000AG SAN JUAN                        AV PROCERES DE LA INDEPENDENCIA 2811 NUEVO SAN JUAN                             LIMA                                   LIMA                               1150132N00                                        A2021090300000
01058339999915010115010100000000000000000000000AG CANTO GRANDE                    MZ E LT 16 SEC 2 BARRIO 1 RES.E-U MARISCAL CACERES                              LIMA                                   LIMA                               1150132N00    3929414                             A2021090300000
01058340999915010115010100000000000000000000000AG.LA MARINA                       AV LA MARINA 2841                                                               LIMA                               32  LIMA                               1150136N00    5783736                 6130000     A2021090300000
01058341999915010115010100000000000000000000000AG. VILLA MARIA                    AV PACHACUTEC 2181                                                              LIMA                                   LIMA                               1150143N00    4506184                             A2021090300000
01058342999920060120060100000000000000000000000AG SULLANA                         JOSE LAMAS MZ 12 LT 3 LETICIA                                                   SULLANA                                SULLANA                            0200601N00 73  503786                             A2021090300000
01058343999913010113010100000000000000000000000AG LA ESPERANZA                    P.JOV.LA ESPERANZA SEC.CENTRAL BARRIO 3 MZ24 L15 ( AV.JOSE G. CONFORCANQUI 1220 TRUJILLO                               TRUJILLO                           1130101N00    6107979                             A2021090300000
01058344999920010120010100000000000000000000000AG. PIURA CASTILLA                 AV CAYETANO HEREDIA 503 505 Y AV.G CIVIL DPTO A URB MIRAFLORES                  PIURA                                  PIURA                              0200104N00    6107979                             A2021090300000
01058345999915050115050100000000000000000000000AG.MALA                            PUEBLO TRADICIONAL DE MALA CERCADO MZ.10 LT.117                                 MALA                                   CAÑETE                             1150509N00    6107979                             A2021090300000
01058346999920010120010100000000000000000000000AG.PAITA                           CALLE JUNIN 450                                                                 PAITA                                  PAITA                              0200501N00    6107979                             A2021090300000
01058347999920010120010100000000000000000000000AG SECHURA                         CALLE BOLIVAR 260                                                               SECHURA                                SECHURA                            0200801N00    6107979                             A2021090300000
01058348999913010113010100000000000000000000000AG.VIRU                            CALLE SAN MARTIN 274                                                            VIRU                                   VIRU                               0131201N00    6107979                             A2021090300000
01058349999911050111050100000000000000000000000AG PISCO                           CALLE COMERCIO 159 167 SUB LOTE A (ANTES FIGUEROA 6,8 Y 10)                     PISCO                                  PISCO                              0110501N00 56  535956                             A2021090300000
01058350999908010108010100000000000000000000000AG CUSCO LA CULTURA                AV LA CULTURA 1404 LT 3 MZ 248 URB CHACHACOMAYOC                                CUSCO                                  CUSCO                              1080101N00    6107979                             A2021090300000
01058351999922090122090100000000000000000000000AG.TARAPOTO TSF                    JR.LIMA 164                                                                     TARAPOTO                               SAN MARTIN                         0220901N00    6107979                             A2021090300000
01058352999916010116010100000000000000000000000AG.IQUITOS TSF                     CALLE SARGENTO SEGUNDO FLORES 154                                               IQUITOS                                MAYNAS                             0160101N00    6107979                             A2021090300000
01058353999904010104010100000000000000000000000AG.CACERES                         AV.ALCIDES CARRION 227(MZ D LOTE 5 CENTRO POBLADO LA PAMPILLA)                  AREQUIPA                               AREQUIPA                           1040129N00                                        A2021090300000
01058354999901070101070100000000000000000000000AG. BAGUA GRANDE                   AV. CHACHAPOYAS Nº 2089-AMAZONES-UTCUBAMBA-BAGUA GRANDE                         UTCUBAMBA                              BAGUA GRANDE                       0010701N00                                        A2021090300000
01058355999925010525010500000000000000000000000AG. YARINACOCHA                    JR. 7 DE JUNIO NO 340 MZ 12 LT. 2A                                              YARINACOCHA                            YARINACOCHA                        0250105S00                            6130000     A2021090300000
01058356999915013315013300000000000000000000000AG. SAN JUAN DE MIRAFLORES         AV. JULIO BELLIDO N 503                                                         LIMA                                   LIMA                               1150133N00                                        A2021090300000
01058357999915010115010100000000000000000000000AG. SANTA ANITA                    AV. LOS CHANCAS N 286-288                                                       LIMA                                   LIMA                               1150137N00                                        A2021090300000
01058358999915010115010100000000000000000000000AG. RIMAC                          AV. AMANCAES 130-132-134 URB. LA FLORIDA                                        LIMA                                   LIMA                               1150128N00                            6130000     A2021090300000
01058359999904010104010100000000000000000000000AG. PAUCARPATA                     MZ. A, LOTE N 8, ZONA B  BARRIO MARGINAL 15 DE ENERO                            AREQUIPA                               AREQUIPA                           1040112N00   94912907                             A2021090300000
01058360999915010115010100000000000000000000000AG. MIRAFLORES                     AV. LARCO 663                                                                   LIMA                               l18 LIMA                               0150122N00    6107979                             A2021090300000
01058361999915010115010100000000000000000000000AG. VILLA MARIA                    PUEBLO JOVEN VILLA POETA JOSE GLVEZ  PARCELA B MZ. 158C LOTE 3 Y SUB LOTE 3A, PALIMA                                   LIMA                               1150143N00    6130000                             A2021090300000
01058362999915010115010100000000000000000000000AG.  VILLA EL SALVADOR             AV. REVOLUCIN CUADRA 20 LOTE 8 SECTOR 2 GRUPO 10 - VILLA EL SALVADOR, 1ER PISO YLIMA                                   LIMA                               1150142N00                            613000051832A2021090300000
01058363999923010123010100000000000000000000000AG.TACNA SANTA ROSA                AV.LA CULTURA MZ 95 LTE 26-27                                                   TACNA                                  TACNA                              0230110N00 52  405901                             A2021090300000
01058364999921010121010100000000000000000000000AG.PUNO                            CALLE PUNO Y AREQUIPA                                                           PUNO                                   PUNO                               0210101N00     366859                             A2021090300000
01058365999902010102010100000000000000000000000AG HUARAZ                          AV AUGUSTIN GAMARRA S/N BARRIO SOLEDAD BAJA                                     HUARAZ                                 HUARAZ                             0020105N00 43  422080                             A2021090300000
01058366999912010112010100000000000000000000000AG.HUANCAYO EL TAMBO               CALLE REAL 375 391                                                              HUANCAYO                               HUANCAYO                           0120114N00 64  247261                             A2021090300000
990580000000000000000000000000000000000000000000000000000000000000000000000000000000000000000000000000000000000000000000000000000000000000000000000000000000000000000000000000000000000000000000000000000000000000000000000000000000000000000000000000000000000000000000000000000000000000000000000000000069
