00096FINANCIERA EFECTIVA                 0000000000000000000000000000000000000000000000000000000000000000000000000000000000000000000000000000000000000000000000000000000000000000000000000000000000000000000000000000000000000000000000000000000000000000000000000000000000000000000000000000000000020220701
01096001999900000015014000000000000000000000000Sede Principal                     Jr. Santorín                                                                    SANTIAGO DE SURCO                  0000Lima                               0150140N000000000000000000000000000000000000000000A2022070100000
01096002999900000020010100000000000000000000000Piura EFE                          Av. Grau                                                                        PIURA                              0000Piura                              0200101N000000000000000000000000000000000000000000A2022070100000
01096003999900000002180100000000000000000000000Chimbote EFE                       Jr. Leoncio Prado                                                               CHIMBOTE                           0000Ancash                             0021801N000000000000000000000000000000000000000000A2022070100000
01096004999900000002010100000000000000000000000Huaraz EFE                         Av. Luzuriaga                                                                   HUARAZ                             0000Ancash                             0020101N000000000000000000000000000000000000000000A2022070100000
01096006999900000005010100000000000000000000000Ayacucho EFE                       Jr. Asamblea                                                                    AYACUCHO                           0000Ayacucho                           0050101N000000000000000000000000000000000000000000A2022070100000
01096007999900000006080100000000000000000000000Jaen EFE                           Av. Mesones Muro                                                                JAEN                               0000Cajamarca                          0060801N000000000000000000000000000000000000000000A2022070100000
01096008999900000006010100000000000000000000000Cajamarca 1 EFE                    Jr. Dos De Mayo                                                                 CAJAMARCA                          0000Cajamarca                          0060101N000000000000000000000000000000000000000000A2022070100000
01096009999900000008010100000000000000000000000Cusco 1 EFE                        Calle Ayacucho                                                                  CUSCO                              0000Cusco                              0080101N000000000000000000000000000000000000000000A2022070100000
01096010999900000010010100000000000000000000000Huanuco EFE                        Jr. Dos De Mayo                                                                 HUANUCO                            0000Huanuco                            0100101N000000000000000000000000000000000000000000A2022070100000
01096011999900000011020100000000000000000000000Chincha EFE                        Av. Oscar Benavides                                                             CHINCHA ALTA                       0000Ica                                0110201N000000000000000000000000000000000000000000A2022070100000
01096012999900000011010100000000000000000000000Ica EFE                            Calle Lima                                                                      ICA                                0000Ica                                0110101N000000000000000000000000000000000000000000A2022070100000
01096013999900000012010100000000000000000000000Huancayo 1 EFE                     Calle Real                                                                      HUANCAYO                           0000Junin                              0120101N000000000000000000000000000000000000000000A2022070100000
01096014999900000012070100000000000000000000000Tarma EFE                          Jr. Lima                                                                        TARMA                              0000Junin                              0120701N000000000000000000000000000000000000000000A2022070100000
01096015999900000013010100000000000000000000000Trujillo EFE                       Jr. Bolivar                                                                     TRUJILLO                           0000La Libertad                        0130101N000000000000000000000000000000000000000000A2022070100000
01096016999900000020060100000000000000000000000Sullana EFE                        Calle San Martin                                                                SULLANA                            0000Piura                              0200601N000000000000000000000000000000000000000000A2022070100000
01096017999900000020050100000000000000000000000Paita EFE                          Jr. Junin                                                                       PAITA                              0000Piura                              0200501N000000000000000000000000000000000000000000A2022070100000
01096019999900000024010100000000000000000000000Tumbes EFE                         Calle Bolivar                                                                   TUMBES                             0000Tumbes                             0240101N000000000000000000000000000000000000000000A2022070100000
01096020999900000011050100000000000000000000000Pisco EFE                          Pasaje Jazmin  - Belen                                                          PISCO                              0000Ica                                0110501N000000000000000000000000000000000000000000A2022070100000
01096021999900000016010100000000000000000000000IQUITOS ORIENTE SELVA              Jr. Prospero                                                                    IQUITOS                            0000Loreto                             0160101N000000000000000000000000000000000000000000A2022070100000
01096022999900000016020100000000000000000000000Yurimaguas EFE                     Jr. Plaza De Armas                                                              YURIMAGUAS                         0000Loreto                             0160201N000000000000000000000000000000000000000000A2022070100000
01096023999900000025010100000000000000000000000Pucallpa EFE                       Jiron Raymondi N° 698                                                           CALLERIA                           0000Ucayali                            0250101N000000000000000000000000000000000000000000A2022070100000
01096024999900000021110100000000000000000000000Juliaca EFE                        Jr. Bracesco N° 439                                                             JULIACA                            0000Puno                               0211101N000000000000000000000000000000000000000000A2022070100000
01096025999900000010060100000000000000000000000Tingo Maria EFE                    Av. Raymondi Mz. 14 Lt 6A                                                       RUPA-RUPA                          0000Huanuco                            0100601N000000000000000000000000000000000000000000A2022070100000
01096026999900000012030100000000000000000000000La Merced EFE                      Jr. Tarma                                                                       CHANCHAMAYO                        0000Junin                              0120301N000000000000000000000000000000000000000000A2022070100000
01096028999900000022010100000000000000000000000Moyobamba EFE                      Jirón Pedro Canga                                                               MOYOBAMBA                          0000San Martin                         0220101N000000000000000000000000000000000000000000A2022070100000
01096029999900000020070100000000000000000000000Talara EFE                         Av. Grau                                                                        PARIÐAS                            0000Piura                              0200701N000000000000000000000000000000000000000000A2022070100000
01096030999900000014010100000000000000000000000Pedro Ruiz EFE                     Av. Pedro Ruiz N                                                                CHICLAYO                           0000Lambayeque                         0140101N000000000000000000000000000000000000000000A2022070100000
01096033999900000004010100000000000000000000000Arequipa 3 EFE                     Av. Mariscal Castilla                                                           AREQUIPA                           0000Arequipa                           0040101N000000000000000000000000000000000000000000A2022070100000
01096034999900000012010100000000000000000000000Huancayo 2 EFE                     Av. Ferrocarril                                                                 HUANCAYO                           0000Junin                              0120101N000000000000000000000000000000000000000000A2022070100000
01096035999900000013010200000000000000000000000Trujillo 2 EFE                     Av. Sanchez Carion                                                              EL PORVENIR                        0000La Libertad                        0130102N000000000000000000000000000000000000000000A2022070100000
01096036999900000006010100000000000000000000000Cajamarca 2 EFE                    Av. Atahualpa                                                                   CAJAMARCA                          0000Cajamarca                          0060101N000000000000000000000000000000000000000000A2022070100000
01096038999900000011030100000000000000000000000Nazca EFE                          Jr. Bolognesi                                                                   NASCA                              0000Ica                                0110301N000000000000000000000000000000000000000000A2022070100000
01096039999900000013040100000000000000000000000Chepen EFE                         Av. Ezequiel Gonzales C.                                                        CHEPEN                             0000La Libertad                        0130401N000000000000000000000000000000000000000000A2022070100000
01096040999900000017010100000000000000000000000Puerto Maldonado EFE               Av. León Velarde                                                                TAMBOPATA                          0000Madre de Dios                      0170101N000000000000000000000000000000000000000000A2022070100000
01096041999900000015080100000000000000000000000Huacho EFE                         Av. 28 De Julio                                                                 HUACHO                             0000Lima                               0150801N000000000000000000000000000000000000000000A2022070100000
01096042999900000015014300000000000000000000000Villamaria Triunfo EFE             Av. Pachacutec                                                                  VILLA MARIA DEL TRIUNFO            0000Lima                               0150143N000000000000000000000000000000000000000000A2022070100000
01096044999900000015060100000000000000000000000Huaral EFE                         Calle Derecha                                                                   HUARAL                             0000Lima                               0150601N000000000000000000000000000000000000000000A2022070100000
01096047999900000015013200000000000000000000000San Juan Lurigancho EFE            Av. P. D L Independencia                                                        SAN JUAN DE LURIGANCHO             0000Lima                               0150132N000000000000000000000000000000000000000000A2022070100000
01096048999900000015010300000000000000000000000Ate 2 EFE                          Mz L Lt 25 Urb. Angeles                                                         ATE                                0000Lima                               0150103N000000000000000000000000000000000000000000A2022070100000
01096049999900000018030100000000000000000000000Ilo EFE                            Jr. 28 De Julio                                                                 ILO                                0000Moquegua                           0180301N000000000000000000000000000000000000000000A2022070100000
01096050999900000019010100000000000000000000000Cerro De Pasco EFE                 Av. Circunvalac Arenales                                                        CHAUPIMARCA                        0000Pasco                              0190101N000000000000000000000000000000000000000000A2022070100000
01096051999900000015013300000000000000000000000San Juan Miraflores EFE            Av. Héroes                                                                      SAN JUAN DE MIRAFLORES             0000Lima                               0150133N000000000000000000000000000000000000000000A2022070100000
01096052999900000022090100000000000000000000000Tarapoto EFE                       Jr.Jimenez Pimentel                                                             TARAPOTO                           0000San Martin                         0220901N000000000000000000000000000000000000000000A2022070100000
01096054999900000015013500000000000000000000000San Martin EFE                     Av. Perú                                                                        SAN MARTIN DE PORRES               0000Lima                               0150135N000000000000000000000000000000000000000000A2022070100000
01096055999900000007010600000000000000000000000Boulevard EFE                      Mz. C5 Lt. 14 Urb. Ex Zon                                                       VENTANILLA                         0000Callao                             0070106N000000000000000000000000000000000000000000A2022070100000
01096057999900000015014200000000000000000000000Villa El Salvador EFE              Mz. A  Lt. 13                                                                   VILLA EL SALVADOR                  0000Lima                               0150142N000000000000000000000000000000000000000000A2022070100000
01096059999900000015010300000000000000000000000Huaycan EFE                        Av. Jose Carlos Mariategu                                                       ATE                                0000Lima                               0150103N000000000000000000000000000000000000000000A2022070100000
01096060999900000015013200000000000000000000000Caceres EFE                        Ciudad Mariscal Cáceres                                                         SAN JUAN DE LURIGANCHO             0000Lima                               0150132N000000000000000000000000000000000000000000A2022070100000
01096062999900000015011700000000000000000000000Pro EFE                            Av. Alfredo Mendiola                                                            LOS OLIVOS                         0000Lima                               0150117N000000000000000000000000000000000000000000A2022070100000
01096064999900000015050700000000000000000000000Cañete EFE                         Jr. 28 De Julio Nº315                                                           IMPERIAL                           0000Lima                               0150507N000000000000000000000000000000000000000000A2022070100000
01096065999900000016011300000000000000000000000Iquitos 2 EFE                      Av. Jose Abelardo Quiñone                                                       SAN JUAN BAUTISTA                  0000Loreto                             0160113N000000000000000000000000000000000000000000A2022070100000
01096066999900000015010600000000000000000000000Carabayllo EFE                     Av. Tupac Aamru                                                                 CARABAYLLO                         0000Lima                               0150106N000000000000000000000000000000000000000000A2022070100000
01096068999900000014030700000000000000000000000Motupe EFE                         Avda. Tupac Amaru                                                               MOTUPE                             0000Lambayeque                         0140307N000000000000000000000000000000000000000000A2022070100000
01096069999900000020011000000000000000000000000La Union EFE                       Avda. Lima                                                                      LA UNION                           0000Piura                              0200110N000000000000000000000000000000000000000000A2022070100000
01096070999900000015011000000000000000000000000Comas 2 EFE                        Avda. Tupac Amaru                                                               COMAS                              0000Lima                               0150110N000000000000000000000000000000000000000000A2022070100000
01096071999900000008090100000000000000000000000Quillabamba EFE                    Avda. Bolognesi                                                                 SANTA ANA                          0000Cusco                              0080901N000000000000000000000000000000000000000000A2022070100000
01096072999900000013090100000000000000000000000Huamachuco EFE                     Jirón Jose Balta                                                                HUAMACHUCO                         0000La Libertad                        0130901N000000000000000000000000000000000000000000A2022070100000
01096073999900000002180100000000000000000000000Chimbote LC                        Jr. Leoncio Prado                                                               CHIMBOTE                           0000Ancash                             0021801N000000000000000000000000000000000000000000A2022070100000
01096074999900000002010100000000000000000000000Huaraz LC                          Av. Luzuriaga                                                                   HUARAZ                             0000Ancash                             0020101N000000000000000000000000000000000000000000A2022070100000
01096075999900000004010100000000000000000000000Arequipa 1 LC                      Calle Jerusalén                                                                 AREQUIPA                           0000Arequipa                           0040101N000000000000000000000000000000000000000000A2022070100000
01096076999900000004012900000000000000000000000Arequipa 2 LC                      Av. Andrés A. Cáceres                                                           JOSE LUIS BUSTAMANTE Y RIVERO      0000Arequipa                           0040129N000000000000000000000000000000000000000000A2022070100000
01096078999900000005010100000000000000000000000Ayacucho LC                        Av. Mariscal Cáceres                                                            AYACUCHO                           0000Ayacucho                           0050101N000000000000000000000000000000000000000000A2022070100000
01096079999900000006010100000000000000000000000Cajamarca Mega LC                  Jr. Sor Manuela Gil                                                             CAJAMARCA                          0000Cajamarca                          0060101N000000000000000000000000000000000000000000A2022070100000
01096080999900000006010100000000000000000000000Cajamarca 1 LC                     Jr. Del Comercio                                                                CAJAMARCA                          0000Cajamarca                          0060101N000000000000000000000000000000000000000000A2022070100000
01096081999900000006080100000000000000000000000Jaen LC                            Av. Villanueva Pinillos                                                         JAEN                               0000Cajamarca                          0060801N000000000000000000000000000000000000000000A2022070100000
01096082999900000008010100000000000000000000000Cusco LC                           Calle San Andrés                                                                CUSCO                              0000Cusco                              0080101N000000000000000000000000000000000000000000A2022070100000
01096083999900000012010100000000000000000000000Huancayo 1 LC                      Calle Real                                                                      HUANCAYO                           0000Junin                              0120101N000000000000000000000000000000000000000000A2022070100000
01096084999900000012010100000000000000000000000Huancayo Mega LC                   Calle Amazonas                                                                  HUANCAYO                           0000Junin                              0120101N000000000000000000000000000000000000000000A2022070100000
01096085999900000010010100000000000000000000000Huanuco 1 LC                       Calle Huánuco                                                                   HUANUCO                            0000Huanuco                            0100101N000000000000000000000000000000000000000000A2022070100000
01096086999900000010010100000000000000000000000Huanuco 2 LC                       Jr. 2 De Mayo                                                                   HUANUCO                            0000Huanuco                            0100101N000000000000000000000000000000000000000000A2022070100000
01096087999900000011010100000000000000000000000Ica 1 LC                           Av. Grau                                                                        ICA                                0000Ica                                0110101N000000000000000000000000000000000000000000A2022070100000
01096089999900000011020100000000000000000000000Chincha 1 LC                       Av. Benavides                                                                   CHINCHA ALTA                       0000Ica                                0110201N000000000000000000000000000000000000000000A2022070100000
01096090999900000011020100000000000000000000000Chincha 2 LC                       Jr. Santo Domingo                                                               CHINCHA ALTA                       0000Ica                                0110201N000000000000000000000000000000000000000000A2022070100000
01096091999900000013010100000000000000000000000Trujillo 1 LC                      Ayacucho                                                                        TRUJILLO                           0000La Libertad                        0130101N000000000000000000000000000000000000000000A2022070100000
01096093999900000013010200000000000000000000000Trujillo 2 LC                      Av. J. Sánchez  Carrión                                                         EL PORVENIR                        0000La Libertad                        0130102N000000000000000000000000000000000000000000A2022070100000
01096094999900000014010100000000000000000000000Chiclayo LC                        Pedro Ruíz                                                                      CHICLAYO                           0000Lambayeque                         0140101N000000000000000000000000000000000000000000A2022070100000
01096097999900000020010100000000000000000000000Piura Grau LC                      Av. Grau                                                                        PIURA                              0000Piura                              0200101N000000000000000000000000000000000000000000A2022070100000
01096098999900000020010400000000000000000000000Piura 2 LC                         Av. Cáceres S/N                                                                 CASTILLA                           0000Piura                              0200104N000000000000000000000000000000000000000000A2022070100000
01096099999900000020060100000000000000000000000Sullana LC                         Calle Sucre                                                                     SULLANA                            0000Piura                              0200601N000000000000000000000000000000000000000000A2022070100000
01096100999900000020050100000000000000000000000Paita LC                           Jr. Junín                                                                       PAITA                              0000Piura                              0200501N000000000000000000000000000000000000000000A2022070100000
01096101999900000021110100000000000000000000000Juliaca LC                         Calle Tumbes                                                                    JULIACA                            0000Puno                               0211101N000000000000000000000000000000000000000000A2022070100000
01096102999900000006010100000000000000000000000Cajamarca Motocorp                 Av. Evitamiento Sur S/N                                                         CAJAMARCA                          0000Cajamarca                          0060101N000000000000000000000000000000000000000000A2022070100000
01096104999900000011010100000000000000000000000Ica Motocorp                       Calle Ayabaca                                                                   ICA                                0000Ica                                0110101N000000000000000000000000000000000000000000A2022070100000
01096105999900000006080100000000000000000000000Jaen Motocorp                      Av. Pakamura                                                                    JAEN                               0000Cajamarca                          0060801N000000000000000000000000000000000000000000A2022070100000
01096107999900000022010100000000000000000000000Moyobamba Motocorp                 Jr. Callao                                                                      MOYOBAMBA                          0000San Martin                         0220101N000000000000000000000000000000000000000000A2022070100000
01096109999900000020010100000000000000000000000Piura Motocorp                     Prolongación Grau                                                               PIURA                              0000Piura                              0200101N000000000000000000000000000000000000000000A2022070100000
01096110999900000025010100000000000000000000000Pucallpa Motocorp                  Jr. Tacna                                                                       CALLERIA                           0000Ucayali                            0250101N000000000000000000000000000000000000000000A2022070100000
01096111999900000013011100000000000000000000000Trujillo Motocorp                  Av. América Sur                                                                 VICTOR LARCO HERRERA               0000La Libertad                        0130111N000000000000000000000000000000000000000000A2022070100000
01096113999900000020040100000000000000000000000Chulucanas EFE                     Jr. Apurimac                                                                    CHULUCANAS                         0000Piura                              0200401N000000000000000000000000000000000000000000A2022070100000
01096115999900000016011300000000000000000000000Iquitos Motocorp                   Av. A. Quiñones Km 1.5                                                          SAN JUAN BAUTISTA                  0000Loreto                             0160113N000000000000000000000000000000000000000000A2022070100000
01096116999900000020060100000000000000000000000Sullana Motocorp                   Av. Jose De Lama                                                                SULLANA                            0000Piura                              0200601N000000000000000000000000000000000000000000A2022070100000
01096118999900000014010100000000000000000000000Chiclayo Motocorp                  Av. Luis Gonzales                                                               CHICLAYO                           0000Lambayeque                         0140101N000000000000000000000000000000000000000000A2022070100000
01096119999900000004020100000000000000000000000Camana EFE                         Av. Lima                                                                        CAMANA                             0000Arequipa                           0040201N000000000000000000000000000000000000000000A2022070100000
01096120999900000001010100000000000000000000000Chachapoyas LC                     Jr. Amazonas                                                                    CHACHAPOYAS                        0000Amazonas                           0010101N000000000000000000000000000000000000000000A2022070100000
01096121999900000004020100000000000000000000000Camana LC                          Jr. 28 De Julio                                                                 CAMANA                             0000Arequipa                           0040201N000000000000000000000000000000000000000000A2022070100000
01096122999900000004052000000000000000000000000El Pedregal LC                     Av. Majes Mz Q Lt. 3                                                            MAJES                              0000Arequipa                           0040520N000000000000000000000000000000000000000000A2022070100000
01096123999900000008090100000000000000000000000Quillabamba LC                     Jr. Ricardo Palma                                                               SANTA ANA                          0000Cusco                              0080901N000000000000000000000000000000000000000000A2022070100000
01096124999900000010060100000000000000000000000Tingo Maria LC                     Av. Raimondi                                                                    RUPA-RUPA                          0000Huanuco                            0100601N000000000000000000000000000000000000000000A2022070100000
01096125999900000011050100000000000000000000000Pisco LC                           Pasaje Jazmín                                                                   PISCO                              0000Ica                                0110501N000000000000000000000000000000000000000000A2022070100000
01096126999900000011030100000000000000000000000Nazca LC                           Calle Lima                                                                      NASCA                              0000Ica                                0110301N000000000000000000000000000000000000000000A2022070100000
01096128999900000012070100000000000000000000000Tarma LC                           Calle Lima                                                                      TARMA                              0000Junin                              0120701N000000000000000000000000000000000000000000A2022070100000
01096129999900000012030100000000000000000000000La Merced LC                       Jr. Tarma                                                                       CHANCHAMAYO                        0000Junin                              0120301N000000000000000000000000000000000000000000A2022070100000
01096130999900000012060100000000000000000000000Satipo LC                          Jr. Augusto B. Leguìa                                                           SATIPO                             0000Junin                              0120601N000000000000000000000000000000000000000000A2022070100000
01096131999900000013120100000000000000000000000Viru LC                            Av. La Alameda                                                                  VIRU                               0000La Libertad                        0131201N000000000000000000000000000000000000000000A2022070100000
01096132999900000013090100000000000000000000000Huamachuco LC                      Jr. Sanchez Carrión                                                             HUAMACHUCO                         0000La Libertad                        0130901N000000000000000000000000000000000000000000A2022070100000
01096133999900000013040100000000000000000000000Chepen LC                          Calle Trujillo                                                                  CHEPEN                             0000La Libertad                        0130401N000000000000000000000000000000000000000000A2022070100000
01096134999900000013070400000000000000000000000Pacasmayo LC                       Calle Adolfo King                                                               PACASMAYO                          0000La Libertad                        0130704N000000000000000000000000000000000000000000A2022070100000
01096135999900000014030100000000000000000000000Lambayeque LC                      Av. Ramòn Castilla                                                              LAMBAYEQUE                         0000Lambayeque                         0140301N000000000000000000000000000000000000000000A2022070100000
01096136999900000014020600000000000000000000000Ferrenafe LC                       Calle Grau                                                                      PUEBLO NUEVO                       0000Lambayeque                         0140206N000000000000000000000000000000000000000000A2022070100000
01096137999900000015010300000000000000000000000Ate 1 LC                           Av. Nivolas Ayllon                                                              ATE                                0000Lima                               0150103N000000000000000000000000000000000000000000A2022070100000
01096138999900000015010300000000000000000000000Ate 2 LC                           Asoc. Porvenir Vitarte                                                          ATE                                0000Lima                               0150103N000000000000000000000000000000000000000000A2022070100000
01096139999900000015011900000000000000000000000Lurin LC                           Parcela B62 San Vicente                                                         LURIN                              0000Lima                               0150119N000000000000000000000000000000000000000000A2022070100000
01096140999900000015011000000000000000000000000Comas LC                           Av. Tupac Amaru                                                                 COMAS                              0000Lima                               0150110N000000000000000000000000000000000000000000A2022070100000
01096141999900000015013300000000000000000000000San Juan Miraflores LC             Av. San Juan                                                                    SAN JUAN DE MIRAFLORES             0000Lima                               0150133N000000000000000000000000000000000000000000A2022070100000
01096142999900000015014200000000000000000000000Villa El Salvador LC               Av. Revolucion                                                                  VILLA EL SALVADOR                  0000Lima                               0150142N000000000000000000000000000000000000000000A2022070100000
01096143999900000015013200000000000000000000000San Juan Lurigancho LC             Proceres De La Independ                                                         SAN JUAN DE LURIGANCHO             0000Lima                               0150132N000000000000000000000000000000000000000000A2022070100000
01096144999900000015014300000000000000000000000Villa Maria Triunfo LC             Av. Villa Marìa Nº 171                                                          VILLA MARIA DEL TRIUNFO            0000Lima                               0150143N000000000000000000000000000000000000000000A2022070100000
01096145999900000015080100000000000000000000000Huacho LC                          Av. 28 De Julio Nº 655                                                          HUACHO                             0000Lima                               0150801N000000000000000000000000000000000000000000A2022070100000
01096146999900000015020100000000000000000000000Barranca LC                        Jiron Ramon Castilla                                                            BARRANCA                           0000Lima                               0150201N000000000000000000000000000000000000000000A2022070100000
01096147999900000015060100000000000000000000000Huaral LC                          Av. Solar                                                                       HUARAL                             0000Lima                               0150601N000000000000000000000000000000000000000000A2022070100000
01096148999900000015050100000000000000000000000Cañete LC                          Av. Mariscal Benavides                                                          SAN VICENTE DE CAÐETE              0000Lima                               0150501N000000000000000000000000000000000000000000A2022070100000
01096149999900000016010100000000000000000000000Iquitos 1 LC                       Jr. Pròspero                                                                    IQUITOS                            0000Loreto                             0160101N000000000000000000000000000000000000000000A2022070100000
01096151999900000016020100000000000000000000000Yurimagua LC                       Jr. Progreso                                                                    YURIMAGUAS                         0000Loreto                             0160201N000000000000000000000000000000000000000000A2022070100000
01096152999900000017010100000000000000000000000Puerto Maldonado LC                Av. Ernesto Rivero                                                              TAMBOPATA                          0000Madre de Dios                      0170101N000000000000000000000000000000000000000000A2022070100000
01096153999900000019010100000000000000000000000Cerro De Pasco LC                  Jr. Leoncio Prado                                                               CHAUPIMARCA                        0000Pasco                              0190101N000000000000000000000000000000000000000000A2022070100000
01096155999900000020040100000000000000000000000Chulucanas LC                      Jr. Lima  Sector Iii                                                            CHULUCANAS                         0000Piura                              0200401N000000000000000000000000000000000000000000A2022070100000
01096156999900000021010100000000000000000000000Puno LC                            Jr. Cahuide                                                                     PUNO                               0000Puno                               0210101N000000000000000000000000000000000000000000A2022070100000
01096157999900000022090100000000000000000000000Tarapoto LC                        Jr. Martìnez De Compañòn                                                        TARAPOTO                           0000San Martin                         0220901N000000000000000000000000000000000000000000A2022070100000
01096158999900000022010100000000000000000000000Moyobamba LC                       Av. Comandante Pedro Cang                                                       MOYOBAMBA                          0000San Martin                         0220101N000000000000000000000000000000000000000000A2022070100000
01096159999900000022060100000000000000000000000Juanjui LC                         Jr. La Merced                                                                   JUANJUI                            0000San Martin                         0220601N000000000000000000000000000000000000000000A2022070100000
01096160999900000023010100000000000000000000000Tacna LC                           Av. San Martìn                                                                  TACNA                              0000Tacna                              0230101N000000000000000000000000000000000000000000A2022070100000
01096161999900000024010100000000000000000000000Tumbes LC                          Paseo Los Libertadores                                                          TUMBES                             0000Tumbes                             0240101N000000000000000000000000000000000000000000A2022070100000
01096162999900000024030200000000000000000000000Aguas Verdes LC                    Av. Republica Del Perù                                                          AGUAS VERDES                       0000Tumbes                             0240302N000000000000000000000000000000000000000000A2022070100000
01096163999900000020070100000000000000000000000Talara LC                          Centro Cìvico                                                                   PARIÐAS                            0000Piura                              0200701N000000000000000000000000000000000000000000A2022070100000
01096164999900000025010100000000000000000000000Pucallpa LC                        Jr. Raymondi                                                                    CALLERIA                           0000Ucayali                            0250101N000000000000000000000000000000000000000000A2022070100000
01096169999900000015011800000000000000000000000Chosica LC                         Av. 28 De Julio                                                                 LURIGANCHO                         0000Lima                               0150118N000000000000000000000000000000000000000000A2022070100000
01096172999900000007010100000000000000000000000Minka LC                           Av. Argentina                                                                   CALLAO                             0000Callao                             0070101N000000000000000000000000000000000000000000A2022070100000
01096173999900000015010800000000000000000000000Chorrillos LC                      Av. San Marcos Mz. Ii                                                           CHORRILLOS                         0000Lima                               0150108N000000000000000000000000000000000000000000A2022070100000
01096174999900000015011700000000000000000000000Los Olivos LC                      Av. Carlos A. Yzaguìrre                                                         LOS OLIVOS                         0000Lima                               0150117N000000000000000000000000000000000000000000A2022070100000
01096176999900000009010100000000000000000000000Huancavelica LC                    Plaza De Armas Nº S/N                                                           HUANCAVELICA                       0000Huancavelica                       0090101N000000000000000000000000000000000000000000A2022070100000
01096177999900000003010100000000000000000000000Abancay LC                         Calle Arenas                                                                    ABANCAY                            0000Apurimac                           0030101N000000000000000000000000000000000000000000A2022070100000
01096178999900000003020100000000000000000000000Andahuaylas LC                     Jr. G. Càceres Tresierra                                                        ANDAHUAYLAS                        0000Apurimac                           0030201N000000000000000000000000000000000000000000A2022070100000
01096179999900000020011400000000000000000000000Tambo Grande LC                    Jirón Tumbes                                                                    TAMBO GRANDE                       0000Piura                              0200114N000000000000000000000000000000000000000000A2022070100000
01096180999900000015013100000000000000000000000Javier Prado LC                    Avenida Javier Prado                                                            SAN ISIDRO                         0000Lima                               0150131N000000000000000000000000000000000000000000A2022070100000
01096186999900000015020100000000000000000000000Barranca EFE                       Jirón Ramón Castilla                                                            BARRANCA                           0000Lima                               0150201N000000000000000000000000000000000000000000A2022070100000
01096187999900000002180900000000000000000000000Chimbote 2 EFE                     Avenida Pacífico F-3                                                            NUEVO CHIMBOTE                     0000Ancash                             0021809N000000000000000000000000000000000000000000A2022070100000
01096188999900000018010100000000000000000000000Moquegua EFE                       Avenida Balta                                                                   MOQUEGUA                           0000Moquegua                           0180101N000000000000000000000000000000000000000000A2022070100000
01096190999900000015011800000000000000000000000Chosica EFE                        Jirón 28 De Julio                                                               LURIGANCHO                         0000Lima                               0150118N000000000000000000000000000000000000000000A2022070100000
01096192999900000022100100000000000000000000000Tocache LC                         Jirón Freddy Aliaga                                                             TOCACHE                            0000San Martin                         0221001N000000000000000000000000000000000000000000A2022070100000
01096193999900000010010100000000000000000000000Huanuco Motocorp                   Jirón Dos De Mayo                                                               HUANUCO                            0000Huanuco                            0100101N000000000000000000000000000000000000000000A2022070100000
01096196999900000017010100000000000000000000000Puerto Maldonado Motocorp          Avenida 15 De Agosto                                                            TAMBOPATA                          0000Madre de Dios                      0170101N000000000000000000000000000000000000000000A2022070100000
01096197999900000002010500000000000000000000000Huaraz Motocorp                    Mz A A.H. Simón Bolivar                                                         INDEPENDENCIA                      0000Ancash                             0020105N000000000000000000000000000000000000000000A2022070100000
01096198999900000021110100000000000000000000000Juliaca Motocorp                   Avenida Normal                                                                  JULIACA                            0000Puno                               0211101N000000000000000000000000000000000000000000A2022070100000
01096199999900000004010400000000000000000000000Arequipa 4 EFE                     Calle Marañon                                                                   CERRO COLORADO                     0000Arequipa                           0040104N000000000000000000000000000000000000000000A2022070100000
01096203999900000006070100000000000000000000000Bambamarca EFE                     Jirón Alfonso Ugarte                                                            BAMBAMARCA                         0000Cajamarca                          0060701N000000000000000000000000000000000000000000A2022070100000
01096204999900000015012500000000000000000000000Puente Piedra EFE                  Avenida Puente Piedra                                                           PUENTE PIEDRA                      0000Lima                               0150125N000000000000000000000000000000000000000000A2022070100000
01096206999900000003010100000000000000000000000Abancay EFE                        Avenida Arenas                                                                  ABANCAY                            0000Apurimac                           0030101N000000000000000000000000000000000000000000A2022070100000
01096207999900000006020100000000000000000000000Cajabamba EFE                      Jr Celso B. Calderón                                                            CAJABAMBA                          0000Cajamarca                          0060201N000000000000000000000000000000000000000000A2022070100000
01096210999900000005040100000000000000000000000Huanta EFE                         Av Andres Avelino Caceres                                                       HUANTA                             0000Ayacucho                           0050401N000000000000000000000000000000000000000000A2022070100000
01096214999900000014010100000000000000000000000Salaverry LC                       Avenida Salaverry                                                               CHICLAYO                           0000Lambayeque                         0140101N000000000000000000000000000000000000000000A2022070100000
01096224999900000020070600000000000000000000000Mancora LC                         Av. Grau                                                                        MANCORA                            0000Piura                              0200706N000000000000000000000000000000000000000000A2022070100000
01096225999900000015013600000000000000000000000Bazar la Marina                    Avenida Venezuela S/N                                                           SAN MIGUEL                         0000Lima                               0150136N000000000000000000000000000000000000000000A2022070100000
01096226999900000012030300000000000000000000000Pichanaqui EFE                     Jr. Independencia                                                               PICHANAQUI                         0000Junin                              0120303N000000000000000000000000000000000000000000A2022070100000
01096227999900000024010100000000000000000000000Tumbes Mall LC                     Calle San Martín                                                                TUMBES                             0000Tumbes                             0240101N000000000000000000000000000000000000000000A2022070100000
01096228999900000012010100000000000000000000000Huancayo LC Mall                   Av. Ferrocarril                                                                 HUANCAYO                           0000Junin                              0120101N000000000000000000000000000000000000000000A2022070100000
01096229999900000015013300000000000000000000000EFE Mall Del Sur                   Av. Los Lirios                                                                  SAN JUAN DE MIRAFLORES             0000Lima                               0150133N000000000000000000000000000000000000000000A2022070100000
01096230999900000014010100000000000000000000000Chiclayo EFE                       Av. Luis Gonzales                                                               CHICLAYO                           0000Lambayeque                         0140101N000000000000000000000000000000000000000000A2022070100000
01096232999900000015010300000000000000000000000Santa Clara EFE                    Av. La Estrella                                                                 ATE                                0000Lima                               0150103N000000000000000000000000000000000000000000A2022070100000
01096233999900000015011200000000000000000000000Plaza Norte EFE                    Av. Alfredo Mendiola                                                            INDEPENDENCIA                      0000Lima                               0150112N000000000000000000000000000000000000000000A2022070100000
01096234999900000015010300000000000000000000000MALL PURUCHUCO LC                  AV. NICOLAS AYLLON                                                              ATE                                0000Lima                               0150103N000000000000000000000000000000000000000000A2022070100000
01096236999900000015013600000000000000000000000SAN MIGUEL LC                      AV. LA MARINA                                                                   SAN MIGUEL                         0000Lima                               0150136N000000000000000000000000000000000000000000A2022070100000
01096237999900000015013100000000000000000000000LC EXPRESS ARAMBURU                AV. ARAMBURU                                                                    SAN ISIDRO                         0000Lima                               0150131N000000000000000000000000000000000000000000A2022070100000
01096238999900000015013300000000000000000000000SJM 2 MOTOCORP                     AV. LOS HEROES                                                                  SAN JUAN DE MIRAFLORES             0000Lima                               0150133N000000000000000000000000000000000000000000A2022070100000
01096240999900000016020100000000000000000000000MTC HONDA YURIMAGUAS               CALLE HUALLAGA S/N                                                              YURIMAGUAS                         0000Loreto                             0160201N000000000000000000000000000000000000000000A2022070100000
01096242999900000015013700000000000000000000000MALL SANTA ANITA LC                AV. CARRETERA CENTRAL                                                           SANTA ANITA                        0000Lima                               0150137N000000000000000000000000000000000000000000A2022070100000
01096241999900000014010100000000000000000000000CHICLAYO MALL LC                   AV. PANAMERICANA NORTE N°                                                       CHICLAYO                           0000Lambayeque                         0140101N000000000000000000000000000000000000000000A2022070100000
01096243999900000025010100000000000000000000000Oficina Ucayali                    Jr. Rio Santiago                                                                CALLERIA                           0000Ucayali                            0250101N000000000000000000000000000000000000000000A2022070100000
01096244999900000016010100000000000000000000000oficina Loreto                     Jr.Prospero y Ricardo Pal                                                       IQUITOS                            0000Loreto                             0160101N000000000000000000000000000000000000000000A2022070100000
01096245999900000015010800000000000000000000000LC Plaza Lima Sur                  Av Paseo de la republica                                                        CHORRILLOS                         0000Lima                               0150108N000000000000000000000000000000000000000000A2022070100000
01096246999900000004012600000000000000000000000EFE Espress Arequipa               AV. EL EJERCITO                                                                 YANAHUARA                          0000Arequipa                           0040126N000000000000000000000000000000000000000000A2022070100000
01096247999900000015011200000000000000000000000Mega Plaza LC                      Av Alfredo Mendiola                                                             INDEPENDENCIA                      0000Lima                               0150112N000000000000000000000000000000000000000000A2022070100000
01096248999900000022060100000000000000000000000MTC Honda JuanJui                  JR Triunfo con Prospero                                                         JUANJUI                            0000San Martin                         0220601N000000000000000000000000000000000000000000A2022070100000
01096235999900000022090100000000000000000000000MTC Honda Tarapoto                 Jr Juan Vargas                                                                  TARAPOTO                           0000San Martin                         0220901N000000000000000000000000000000000000000000A2022070100000
01096249999900000015012200000000000000000000000LC FLAG SHIP PETIT THOUARS         Av. Petit Thouars N°5375                                                        MIRAFLORES                         0000Lima                               0150122N000000000000000000000000000000000000000000A2022070100000
99096FINANCIERA EFECTIVA                 0000000000000000000000000000000000000000000000000000000000000000000000000000000000000000000000000000000000000000000000000000000000000000000000000000000000000000000000000000000000000000000000000000000000000000000000000000000000000000000000000000000000020220701
