01096023999925010125010100000000000000000000000Pucallpa EFE                       Jiron Raymondi N 698                                                            CALLERIA                           0000Ucayali                            0250101N000000000000000000000000000000000000000000A2022070100000
01096024999921110121110100000000000000000000000Juliaca EFE                        Jr. Bracesco N 439                                                              JULIACA                            0000Puno                               0211101N000000000000000000000000000000000000000000A2022070100000
01096028999922010122010100000000000000000000000Moyobamba EFE                      Jiron Pedro Canga                                                               MOYOBAMBA                          0000San Martin                         0220101N000000000000000000000000000000000000000000A2022070100000
01096029999920070120070100000000000000000000000Talara EFE                         Av. Grau                                                                        PARINAS                            0000Piura                              0200701N000000000000000000000000000000000000000000A2022070100000
01096040999917010117010100000000000000000000000Puerto Maldonado EFE               Av. Leon Velarde                                                                TAMBOPATA                          0000Madre de Dios                      0170101N000000000000000000000000000000000000000000A2022070100000
01096051999915010115010100000000000000000000000San Juan Miraflores EFE            Av. Heroes                                                                      SAN JUAN DE MIRAFLORES             0000Lima                               0150133N000000000000000000000000000000000000000000A2022070100000
01096054999915010115010100000000000000000000000San Martin EFE                     Av. Peru                                                                        SAN MARTIN DE PORRES               0000Lima                               0150135N000000000000000000000000000000000000000000A2022070100000
01096060999915010115010100000000000000000000000Caceres EFE                        Ciudad Mariscal Caceres                                                         SAN JUAN DE LURIGANCHO             0000Lima                               0150132N000000000000000000000000000000000000000000A2022070100000
01096064999915050715050700000000000000000000000Canete EFE                         Jr. 28 De Julio N 315                                                           IMPERIAL                           0000Lima                               0150507N000000000000000000000000000000000000000000A2022070100000
01096065999916011316011300000000000000000000000Iquitos 2 EFE                      Av. Jose Abelardo Quinonez                                                      SAN JUAN BAUTISTA                  0000Loreto                             0160113N000000000000000000000000000000000000000000A2022070100000
01096072999913090113090100000000000000000000000Huamachuco EFE                     Jiron Jose Balta                                                                HUAMACHUCO                         0000La Libertad                        0130901N000000000000000000000000000000000000000000A2022070100000
01096075999904010104010100000000000000000000000Arequipa 1 LC                      Calle Jerusalen                                                                 AREQUIPA                           0000Arequipa                           0040101N000000000000000000000000000000000000000000A2022070100000
01096076999904012904012900000000000000000000000Arequipa 2 LC                      Av. Andres A. Caceres                                                           JOSE LUIS BUSTAMANTE Y RIVERO      0000Arequipa                           0040129N000000000000000000000000000000000000000000A2022070100000
01096078999905010105010100000000000000000000000Ayacucho LC                        Av. Mariscal Caceres                                                            AYACUCHO                           0000Ayacucho                           0050101N000000000000000000000000000000000000000000A2022070100000
01096082999908010108010100000000000000000000000Cusco LC                           Calle San Andres                                                                CUSCO                              0000Cusco                              0080101N000000000000000000000000000000000000000000A2022070100000
01096085999910010110010100000000000000000000000Huanuco 1 LC                       Calle Huanuco                                                                   HUANUCO                            0000Huanuco                            0100101N000000000000000000000000000000000000000000A2022070100000
01096093999913010213010200000000000000000000000Trujillo 2 LC                      Av. J. Sanchez  Carrion                                                         EL PORVENIR                        0000La Libertad                        0130102N000000000000000000000000000000000000000000A2022070100000
01096094999914010114010100000000000000000000000Chiclayo LC                        Pedro Ruiz                                                                      CHICLAYO                           0000Lambayeque                         0140101N000000000000000000000000000000000000000000A2022070100000
01096098999920010420010400000000000000000000000Piura 2 LC                         Av. Caceres S N                                                                 CASTILLA                           0000Piura                              0200104N000000000000000000000000000000000000000000A2022070100000
01096100999920050120050100000000000000000000000Paita LC                           Jr. Junin                                                                       PAITA                              0000Piura                              0200501N000000000000000000000000000000000000000000A2022070100000
01096109999920010120010100000000000000000000000Piura Motocorp                     Prolongacion Grau                                                               PIURA                              0000Piura                              0200101N000000000000000000000000000000000000000000A2022070100000
01096111999913011113011100000000000000000000000Trujillo Motocorp                  Av. America Sur                                                                 VICTOR LARCO HERRERA               0000La Libertad                        0130111N000000000000000000000000000000000000000000A2022070100000
01096115999916011316011300000000000000000000000Iquitos Motocorp                   Av. A. Quinones Km 1.5                                                          SAN JUAN BAUTISTA                  0000Loreto                             0160113N000000000000000000000000000000000000000000A2022070100000
01096125999911050111050100000000000000000000000Pisco LC                           Pasaje Jazmin                                                                   PISCO                              0000Ica                                0110501N000000000000000000000000000000000000000000A2022070100000
01096130999912060112060100000000000000000000000Satipo LC                          Jr. Augusto B. Leguia                                                           SATIPO                             0000Junin                              0120601N000000000000000000000000000000000000000000A2022070100000
01096132999913090113090100000000000000000000000Huamachuco LC                      Jr. Sanchez Carrion                                                             HUAMACHUCO                         0000La Libertad                        0130901N000000000000000000000000000000000000000000A2022070100000
01096135999914030114030100000000000000000000000Lambayeque LC                      Av. Ramon Castilla                                                              LAMBAYEQUE                         0000Lambayeque                         0140301N000000000000000000000000000000000000000000A2022070100000
01096144999915010115010100000000000000000000000Villa Maria Triunfo LC             Av. Villa Maria No. 171                                                         VILLA MARIA DEL TRIUNFO            0000Lima                               0150143N000000000000000000000000000000000000000000A2022070100000
01096145999915080115080100000000000000000000000Huacho LC                          Av. 28 De Julio No. 655                                                         HUACHO                             0000Lima                               0150801N000000000000000000000000000000000000000000A2022070100000
01096148999915050115050100000000000000000000000Canete LC                          Av. Mariscal Benavides                                                          SAN VICENTE DE CANETE              0000Lima                               0150501N000000000000000000000000000000000000000000A2022070100000
01096149999916010116010100000000000000000000000Iquitos 1 LC                       Jr. Prospero                                                                    IQUITOS                            0000Loreto                             0160101N000000000000000000000000000000000000000000A2022070100000
01096157999922090122090100000000000000000000000Tarapoto LC                        Jr. Martinez De Companon                                                        TARAPOTO                           0000San Martin                         0220901N000000000000000000000000000000000000000000A2022070100000
01096160999923010123010100000000000000000000000Tacna LC                           Av. San Martin                                                                  TACNA                              0000Tacna                              0230101N000000000000000000000000000000000000000000A2022070100000
01096162999924030224030200000000000000000000000Aguas Verdes LC                    Av. Republica Del Peru                                                          AGUAS VERDES                       0000Tumbes                             0240302N000000000000000000000000000000000000000000A2022070100000
01096163999920070120070100000000000000000000000Talara LC                          Centro Civico                                                                   PARINAS                            0000Piura                              0200701N000000000000000000000000000000000000000000A2022070100000
01096174999915010115010100000000000000000000000Los Olivos LC                      Av. Carlos A. Yzaguirre                                                         LOS OLIVOS                         0000Lima                               0150117N000000000000000000000000000000000000000000A2022070100000
01096176999909010109010100000000000000000000000Huancavelica LC                    Plaza De Armas S N                                                              HUANCAVELICA                       0000Huancavelica                       0090101N000000000000000000000000000000000000000000A2022070100000
01096178999903020103020100000000000000000000000Andahuaylas LC                     Jr. G. Caceres Tresierra                                                        ANDAHUAYLAS                        0000Apurimac                           0030201N000000000000000000000000000000000000000000A2022070100000
01096179999920011420011400000000000000000000000Tambo Grande LC                    Jiron Tumbes                                                                    TAMBO GRANDE                       0000Piura                              0200114N000000000000000000000000000000000000000000A2022070100000
01096186999915020115020100000000000000000000000Barranca EFE                       Jiron Ramon Castilla                                                            BARRANCA                           0000Lima                               0150201N000000000000000000000000000000000000000000A2022070100000
01096187999902180902180900000000000000000000000Chimbote 2 EFE                     Avenida Pacifico F3                                                             NUEVO CHIMBOTE                     0000Ancash                             0021809N000000000000000000000000000000000000000000A2022070100000
01096190999915010115010100000000000000000000000Chosica EFE                        Jiron 28 De Julio                                                               LURIGANCHO                         0000Lima                               0150118N000000000000000000000000000000000000000000A2022070100000
01096192999922100122100100000000000000000000000Tocache LC                         Jiron Freddy Aliaga                                                             TOCACHE                            0000San Martin                         0221001N000000000000000000000000000000000000000000A2022070100000
01096193999910010110010100000000000000000000000Huanuco Motocorp                   Jiron Dos De Mayo                                                               HUANUCO                            0000Huanuco                            0100101N000000000000000000000000000000000000000000A2022070100000
01096197999902010502010500000000000000000000000Huaraz Motocorp                    Mz A A.H. Simon Bolivar                                                         INDEPENDENCIA                      0000Ancash                             0020105N000000000000000000000000000000000000000000A2022070100000
01096199999904010404010400000000000000000000000Arequipa 4 EFE                     Calle Maranon                                                                   CERRO COLORADO                     0000Arequipa                           0040104N000000000000000000000000000000000000000000A2022070100000
01096203999906070106070100000000000000000000000Bambamarca EFE                     Jiron Alfonso Ugarte                                                            BAMBAMARCA                         0000Cajamarca                          0060701N000000000000000000000000000000000000000000A2022070100000
01096207999906020106020100000000000000000000000Cajabamba EFE                      Jr Celso B. Calderon                                                            CAJABAMBA                          0000Cajamarca                          0060201N000000000000000000000000000000000000000000A2022070100000
01096227999924010124010100000000000000000000000Tumbes Mall LC                     Calle San Martin                                                                TUMBES                             0000Tumbes                             0240101N000000000000000000000000000000000000000000A2022070100000
01096241999914010114010100000000000000000000000CHICLAYO MALL LC                   AV. PANAMERICANA NORTE                                                          CHICLAYO                           0000Lambayeque                         0140101N000000000000000000000000000000000000000000A2022070100000
01096249999915010115010100000000000000000000000LC FLAG SHIP PETIT THOUARS         Av. Petit Thouars No 5375                                                       MIRAFLORES                         0000Lima                               0150122N000000000000000000000000000000000000000000A2022070100000
