01094006999904012904012900000000000000000000000MAKRO AREQUIPA                     AV. ANDRES AVELINO CACERES SECTOR 2                                             JOSE LUIS BUSTAMANTE Y RIVERO          MAKRO AREQUIPA                     0040129N00  1 6196060                 6196060     A2023060900000
01094013999910010110010100000000000000000000000OECHSLE HUANUCO                    JR. INDEPENDENCIA CRUCE CON LA AV. PROLONGACION ALAMEDA DE LA REPUBLICA         HUANUCO                                OECHSLE HUANUCO                    0100101N00  1 6196060                 6196060     A2023060900000
01094018999912011412011400000000000000000000000MAKRO HUANCAYO                     AV. PROLONGACION JOSE C. MARIATEGUI N  950-960                                  EL TAMBO                               MAKRO HUANCAYO                     0120114N00  1 6196060                 6196060     A2023060900000
01094025999918030118030100000000000000000000000PLAZA VEA ILO                      PROLONGACION AV. MARIANO LINO URQUIERA U.O. 5401 EX MEYLAN MZ. C  LT. 1.        ILO                                    PLAZA VEA ILO                      0180301N00  1 6196060                 6196060     A2023060900000
01094027999920011520011500000000000000000000000MAKRO PIURA                        AV. SANCHEZ CERRO S/N MZ. Z LT 1-5-A                                            VEINTISEIS DE OCTUBRE                  MAKRO PIURA                        0200115N00  1 6196060                 6196060     A2023060900000
01094030999920070120070100000000000000000000000PLAZA VEA TALARA                   LOTE 2, PARCELA A.                                                              PARIÑAS                                PLAZA VEA TALARA                   0200701N00  1 6196060                 6196060     A2023060900000
01094031999921010121010100000000000000000000000PLAZA VEA PUNO                     JIRON LOS INCAS S/N  ESTACION FERROVIANA.                                       PUNO                                   PLAZA VEA PUNO                     0210101N00  1 6196060                 6196060     A2023060900000
01094032999921110121110100000000000000000000000OECHSLE JULIACA                    TIENDA POR DEPARTAMENTO OECHSLE EN CALLE TUMBES 391,                            JULIACA                                OECHSLE JULIACA                    0211101N00  1 6196060                 6196060     A2023060900000
01094033999922091022091000000000000000000000000PLAZA VEA TARAPOTO                 PREDIO URBANO CALLE SALAVERRY – CARRETERA MARGINAL DE LA SELVA.                 MORALES                                PLAZA VEA TARAPOTO                 0220910N00  1 6196060                 6196060     A2023060900000
01094034999923010123010100000000000000000000000PLAZA VEA TACNA                    TIENDA PLAZA VEA  EN PARCELA 9 S/N, SECTOR PAGO SILPAY                          TACNA                                  PLAZA VEA TACNA                    0230101N00  1 6196060                 6196060     A2023060900000
01094035999924010124010100000000000000000000000PLAZA VEA TUMBES                   AV. TENIENTE VASQUEZ, ESQUINA CON CALLE LA MARINA. BASE LOS TUMPIS              TUMBES                                 PLAZA VEA TUMBES                   0240101N00  1 6196060                 6196060     A2023060900000
01094036999925010125010100000000000000000000000OECHSLE PUCALLPA 2                 AV. CENTENARIO 1642                                                             CALLERIA                               OECHSLE PUCALLPA 2                 0250101N00  1 6196060                 6196060     A2023060900000
01094037999925010525010500000000000000000000000OECHSLE PUCALLPA                   AV. CENTENARIO N  365.                                                          YARINACOCHA                            OECHSLE PUCALLPA                   0250105N00  1 6196060                 6196060     A2023060900000