01001001999915010115010100000000000000000000000OFICINA PRINCIPAL                  MIRO QUESADA 441                                                                CERCADO                            001 OFICINA PRINCIPAL                  0150101N00    4288427         4288427 4276250 3629A2001072500000
01001010999920010120010100000000000000000000000SUCURSAL PIURA                     LIBERTAD 762                                                                    PIURA                                  PIURA                              0200101N00 74  326952          326209  329070     C2001101900000
01001015999913010113010100000000000000000000000SUCURSAL TRUJILLO                  PIZARRO 446                                                                     TRUJILLO                               TRUJILLO                           0130101N00 44  252136          242515  251557     C2001101900000
01001020999916010116010100000000000000000000000SUCURSAL IQUITOS                   SARGENTO LORES 253                                                              IQUITOS                                IQUITOS                            0160101N00 94  236230  235971  231437  235271     C2001101900000
01001025999908010108010100000000000000000000000SUCURSAL CUSCO                     AVENIDA EL SOL 390                                                              CUSCO                                  CUSCO                              0080101N00 84  232020          229997  233181     C2013022800000
01001030999904010104010100000000000000000000000SUCURSAL AREQUIPA                  LA MERCED 201                                                                   AREQUIPA                               AREQUIPA                           0040101N00 54  233973          201452             C2001080600000
01001035099912010112010100000000000000000000000SUCURSAL HUANCAYO                  JR. LIMA 281 283                                                                HUANCAYO                               HUANCAYO                           0120101N00 64  226061          226061  236669     C2001103000000
01002000999915010115010100000000000000000000000LIMA                               LIMA                                                                            LIMA                                   LIMA                               0150101N00                                        A2001102900000
01002111999915010115010100000000000000000000000LIMA                               LIMA                                                                            LIMA                                   LIMA                               1150101N00                                        A2001111200000
01002191000015010115010100000000000000000000000LIMA OP                            ESQ. JR. UCAYALI / LAMPA                                                        LIMA                               L1  LIMA                               0150101N00  1 4275600         4266425 4275270 4157A2001082300000
01002191000115010115010100000000000000000000000BELEN                              JR. DE LA UNION 1077                                                            CERCADO                            L1  LIMA                               1150101N00  1 4262266 4272324         4725601 4590C2013022800000
01002191000215010115010100000000000000000000000MERCADO CENTRAL                    ESQ. HUALLAGA Y ANDAHUAYLAS                                                     LIMA                                   LIMA                               1150101N00    4278744                             A2013071700000
01002191000415010115010100000000000000000000000PLAZA SAN MARTIN                   JR. OCOÑA 102                                                                   CERCADO                            1   LIMA                               1150101N00  1 4278447 4277997 4280652 4725604 4593C2001080300000
01002191000515010115010100000000000000000000000GRAU                               MANCO CAPAC 101/GRAU                                                            LA VICTORIA                        L13 LIMA                               1150115N00  1 4237282 4241437 4318600 4725605 4594C2001082700000
01002191000615010115010100000000000000000000000AVIACION                           AV. AVIACION 294/296                                                            LA VICTORIA                        L13 LIMA                               1150115N00  1 4733249         4736616 4275606 4595C2001082700000
01002191000715010115010100000000000000000000000TORRE AMERICA                      CALLE SEBASTIAN BARRANCA 1435-1439                                              LIMA                                   LIMA                               1150115N00    3240295 3240325                     C2013071700000
01002191000915010115010100000000000000000000000NICOLAS DE PIEROLA                 AV. NICOLÁS DE PIEROLA 607                                                      CERCADO                            1   LIMA                               1150101N00  1 4271182 4275150 4283300 4725608 4596B2013071700000
01002191001015010115010100000000000000000000000MEGA PLAZA                         AV ALFREDO MENDIOLA 3698                                                        INDEPENDENCIA                          LIMA                               1150112N00    5235081                             A2013071700000
01002191001315010115010100000000000000000000000ATE CERES                          KM 5.6 DE LA CARRETERA CENTRAL                                                  ATE                                    LIMA                               1150103N00    3516400 3516404                     A2013071700000
01002191001415010115010100000000000000000000000ARGENTINA                          AV ARGENTINA 2096                                                               LIMA                                   LIMA                               1150101N00    3367763 3366983                     A2013071700000
01002191001715010115010100000000000000000000000SAN JUAN DE LURIGANCHO             INTERSECCIN AV. FERNANDO WIESSE Y AV. CANTO GRANDE MZ. I-1 LT. 2 Y 3. URB. MARI LIMA                                   ATE                                1150132N00    3926655                             A2013071700000
01002191001815010115010100000000000000000000000BELAUNDE                           AV. VCTOR ANDRS BELAUNDE OESTE 413 - 415                                        LIMA                                   COMAS                              1150110N00    5365555 5369696                     A2013071700000
01002191001915010115010100000000000000000000000UNIPLAZA                           AV. ALFREDO MENDIOLA NRO. 7038-7042, FUNDO SANTA LUZMILA                        LIMA                                   SAN MARTIN                         1150135N00    5375926 5376097                     A2013071700000
01002191002015010115010100000000000000000000000PURUCHUCO                          AV. VCTOR RAL HAYA DE LA TORRE 4485                                             LIMA                                   ATE                                1150103N00    3518335 3518288                     A2013071700000
01002191002115010115010100000000000000000000000SAN MARTIN DE PORRES               AV. PER 3316                                                                    LIMA                                   SAN MARTIN                         1150135N00    5690909 5690015                     A2013071700000
01002191002315010115010100000000000000000000000HABICH                             AV. EDUARDO DE HABICH 245                                                       LIMA                                   SAN MARTIN DE PORRES               1150135N00    3823931                             A2013071700000
01002191002515010115010100000000000000000000000WASHINTONG                         AV. WASHINGTON 1600                                                             LIMA                                   LIMA                               1150101N00    4332785                             A2013071700000
01002191002615010115010100000000000000000000000VENEZUELA                          AV. VENEZUELA 1202 - 1204                                                       BREÑA                              L5  LIMA                               1150105N00  1 4243677 4246220         4725614 4604A2001080400000
01002191002715010115010100000000000000000000000NICOLAS AYLLON                     AV. NICOLAS AYLLN 2096                                                          LIMA                                   ATE                                1150103N00    3260496                             A2013071700000
01002191002815010115010100000000000000000000000ANTUNEZ DE MAYOLO                  AV. ANTNEZ DE MAYOLO 1337                                                       LIMA                                   LOS OLIVOS                         1150117N00    5213535                             A2013071700000
01002191002915010115010100000000000000000000000PRO                                AV. ALFREDO MENDIOLA 7897                                                       LIMA                                   LOS OLIVOS                         1150117N00    5390660                             A2013071700000
01002191003015010115010100000000000000000000000TARAPACA                           ESQ. AV. TARAPACÁ Y LA CAPILLA                                                  RIMAC                              25  LIMA                               1150101N00  1 4811760 4811935         4725616 4606C2001082400000
01002191003115010115010100000000000000000000000PALAO                              AV. ALFREDO MENDIOLA N 761 URB. PALAO                                           SAN MARTIN                             PALAO                              1150101N00                                        A2014032400000
01002191003215010115010100000000000000000000000PARQUE MANCO CAPAC                 AV. MANCO CAPAC 532-538                                                         LA VICTORIA                        13  LIMA                               1150115N00  1 3305908 4332503         4725617 4608C2001080300000
01002191003515010115010100000000000000000000000PUENTE PIEDRA                      JUAN LECAROS 172 (CARRETERA ANCON)                                              PUENTE PIEDRA                      L22 LIMA                               1150125N00  1 4885008 4885290         4725618 4610A2001080300000
01002191003615010115010100000000000000000000000SANTO DOMINGO                      MZ C LT 5  -  URB. SANTO DOMINGO                                                LIMA                                   LIMA                               1150101N00                                        A2014032400000
01002191003715010115010100000000000000000000000EL PROGRESO                        AV. TUPAC AMRU 3364                                                             LIMA                                   LIMA                               1150101N00                                        A2014032400000
01002191003815010115010100000000000000000000000TUPAC AMARU                        AV. TUPAC AMARU 999                                                             COMAS                              7   LIMA                               1150110N00  1 5372353 5372351         4725619 4611C2001080300000
01002191003915010115010100000000000000000000000ISABEL LA CATOLICA                 AV.MANCO CAPAC 1000                                                             CERCADO                            L1  LIMA                               1150101N00  1 4706343 2651715         4725620 4612B2013071700000
01002191004015010115010100000000000000000000000MEGA PLAZA II                      AV. INDUSTRIAL 3515 - 3517, URB. INDUSTRIAL PANAMERICANA NORTE                  LIMA                                   LIMA                               1150101N00                                        A2014032400000
01002191004715010115010100000000000000000000000PARURO                             ESQ PARURO Y MONTEVIDEO 1001                                                    CERCADO                            L1  LIMA                               1150101N00  1 4275406 4279407         4725622 4616C2001082700000
01002191004815010115010100000000000000000000000HUARAZ                             JR. HUARAZ 1635                                                                 BREÑA                              L5  LIMA                               1150105N00  1 4233402 4314318         4725623 4617A2001080300000
01002191005015010115010100000000000000000000000LOS CIPRESES                       JR. E. GARCIA Y GARCIA 2789 URB. LOS CIPRESES                                   CERCADO                            L1  LIMA                               1150101N00  1 5640104 5641221         4725624 4618B2013071700000
01002191005115010115010100000000000000000000000VOLVO                              KM. 6.5 CARRETERA CENTRAL                                                       ATE                                    LIMA                               1150103N00  1 3511027                 4275625 4393B2013071700000
01002191005215010115010100000000000000000000000SANTA ANITA                        CENTRO BANCARIO SANTA ANITA                                                     SANTA ANITA                        43  LIMA                               1150115N00  1 4781593 4781594         4725626 4614C2001082400000
01002191005615010115010100000000000000000000000PERU                               AV. PERU 2230                                                                   SAN MARTIN DE PORRES               L31 LIMA                               1150135N00  1 5682095 5683018         4725628 4620A2001080300000
01002191006215010115010100000000000000000000000PLAZA UNION                        AV. ARGENTINA 210                                                               LA VICTORIA                        L13 LIMA                               1150115N00  1 4246414                 4725628 4622A2001080300000
01002191006415010115010100000000000000000000000MERCADO DE FRUTAS                  NICOLAS ARRIOLA 2393                                                            EL AGUSTINO                        10  LIMA                               1150111N00  1 4748006 4730247         4725629 4623C2001080300000
01002191007215010115010100000000000000000000000MEXICO                             AV. MEXICO 906                                                                  LA VICTORIA                        13  LIMA                               1150115N00  1 4739639 4732957         4725634 4627C2001080300000
01002191007315010115010100000000000000000000000NICOLAS ARRIOLA                    AV. NICOLAS ARRIOLA 304                                                         LA VICTORIA                        13  LIMA                               1150115N00  1 2248576 2252024 2248576 4725635 4628C2001080300000
01002191008415010115010100000000000000000000000NACIONES UNIDAS                    ESQ. AV. MSCAL. OSCAR R. BENAVIDES / NAC. UNIDAS 1380                           CERCADO                            L1  LIMA                               1150101N00  1 4255656 4255655         4725640 4633A2001080300000
01002191008715010115010100000000000000000000000EL PINO                            ESQ. CIRCUNVALACION/LUIS F. ORBEGOSO                                            SAN LUIS                           L30 LIMA                               1150134N00  1 3260257 3260322 3267033 4725641 4634C2001082700000
01002191008815010115010100000000000000000000000FIORI                              AV. TOMAS VALLE Y PANAMERICANA NORTE                                            SAN MARTIN DE PORRES               L31 LIMA                               1150135N00  1 5341473 5341467 5341380 4725642 4635C2001082700000
01002191008915010115010100000000000000000000000ALFONSO UGARTE                     AV. ALFONSO UGARTE 1302                                                         BREÑA                              L5  LIMA                               1150105N00  1 4234033 4249093         4725643 4636A2001080300000
01002191009015010115010100000000000000000000000SALAMANCA                          AV. CIRCUNVALACIÓN 2999 - SALAMANCA                                             ATE                                3   LIMA                               1150103N00  1 4358275 4350701         4725644 4637B2013071700000
01002191009315010115010100000000000000000000000TRISTAR                            AV. PROCERES DE LA INDEPENDENCIA 1487                                           SAN JUAN DE LURIGANCHO             36  LIMA                               1150132N00  1 4595278 4595273                 4878C2001080300000
01002191009415010115010100000000000000000000000LOS OLIVOS                         AV. CARLOS E. IZAGUIRRE 813 URB. MERCURIO                                       LOS OLIVOS                         39  LIMA                               1150117N00  1 5221054         5221082         4879C2001080300000
01002192000315010115010100000000000000000000000LA PUNTA                           JR. BOLOGNESI 612                                                               LA PUNTA                           C5  LIMA                               1070105N00  1 4294561 4292137 4533209 4289849 7081A2001080300000
01002192000515010115010100000000000000000000000SAENZ PEÑA                         AV. SAENZ PEÑA 572                                                              CALLAO                             C1  LIMA                               1070101N00  1 4656324 4650711 4531906 4289850 7082A2001080300000
01002192000815010115010100000000000000000000000FAUCETT                            AV. ELMER FAUCETT 567                                                           SAN MIGUEL                         L32 LIMA                               1150136N00  1 4517442 4520335 5620424 4289852 7086A2001080300000
01002192001315010115010100000000000000000000000GUADALUPE                          AV. GUARDIA CHALACA S/N                                                         CALLAO                             C1  LIMA                               1070101N00  1 4290707                 4289857     A2001080300000
01002192001615010115010100000000000000000000000MINKA                              AV. ARGENTINA 3257                                                              CALLAO                             C1  LIMA                               1070101N00  1 4299530         4299530 4299530     A2001080300000
01002192004215010115010100000000000000000000000BELLAVISTA                         C.C. EL PACIFICO AV. MSCAL OSCAR R. BENAVIDES CDRA. 32                          BELLAVISTA                         C2  LIMA                               1070102N00  1 4209500 4208630         4289859 7088C2001082300000
01002192005415010115010100000000000000000000000CENTRO AEREO COMERCIAL             ESQ. AV. ELMER FAUCETT / TOMAS VALLE                                            CALLAO                             C1  LIMA                               1070101N00  1 4552425 5751570 5752100 4289861 7085A2001080300000
01002192006915010115010100000000000000000000000MARANGA                            ESQ. AV. LA MARINA 2831 / ESCARDO 495                                           SAN MIGUEL                         L32 LIMA                               1150136N00  1 8297376 5787345 5780038 4289862 7089A2001080300000
01002193000015010115010100000000000000000000000SAN ISIDRO                         ESQ. JR. RIVERA NAVARRETE / JR. JUAN DE ARONA                                   SAN ISIDRO                         27  LIMA                               0150131N00  1 4421297         4409253 4428642 5068A2001080300000
01002193000115010115010100000000000000000000000C.C. SAN BORJA                     CALLE CORELLI 185-191-195                                                       SAN BORJA                          41  LIMA                               1150130N00  1 4756229         4752472 4428643 5140A2001080300000
01002193000715010115010100000000000000000000000SEDE CENTRAL                       CALLE CENTENARIO 156                                                            LA MOLINA                          12  LIMA                               1150114N00  1 3490596                 4428648 2695A2001080300000
01002193001115010115010100000000000000000000000JOCKEY PLAZA                       C.C. JOCKEY PLAZA 1ER NIVEL 199A                                                SANTIAGO DE SURCO                  33  LIMA                               1150140N00  1 4375656 4374151 4375656 4428652 5540A2001080300000
01002193001215010115010100000000000000000000000MOBIL SAIMON                       CALLE LAS RETAMAS 130 / ESQ. RAUL FERRERO                                       LA MOLINA                          12  LIMA                               1150114N00  1 3651173                 4428653 5530A2001080300000
01002193001615010115010100000000000000000000000MOBIL REAL                         AV. SAN BORJA NORTE 109 / 111                                                   SAN BORJA                          41  LIMA                               1150130N00  1 2256746                 4428656 5533A2001080300000
01002193001715010115010100000000000000000000000ARNALDO MARQUEZ                    AV. ARNALDO MARQUEZ 1418-1420                                                   JESUS MARIA                        11  LIMA                               1150113N00  1 4235443 4331493 4331493 4428657 5148C2001080300000
01002193001815010115010100000000000000000000000TORRE REAL SIETE                   VICTOR ANDRES BELAUNDE 147 VIA PRINCIPAL                                        SAN ISIDRO                         27  LIMA                               1150131N00  1 2228423 2227734 4228098 4428658 5586A2001080300000
01002193002015010115010100000000000000000000000ANGAMOS                            AV. ANGAMOS ESTE 955                                                            SURQUILLO                          34  LIMA                               1150141N00  1 4454497 4450046         4428659 5150A2001080300000
01002193002215010115010100000000000000000000000ROSA TORO                          AV. CANADA 3474 URB. JACARANDÁ II                                               SAN BORJA                          41  LIMA                               1150130N00  1 3461550         3461559             A2001080300000
01002193002915010115010100000000000000000000000RISSO                              JULIO C. TELLO 999                                                              LINCE                              14  LIMA                               1150116N00  1 4700040 4702735         4428661 5151A2001080300000
01002193003715010115010100000000000000000000000CARRILLO MILLER                    ESQ. JR. CAMILO CARRILLO / MARISCAL MILLER                                      JESUS MARIA                        11  LIMA                               1150113N00  1 4335471 4335195         4428664 5157A2001080300000
01002193007715010115010100000000000000000000000PARQUE DE LA POLICIA               ESQ. GENERAL VIVANCO / PQUE. DE LA POLICIA                                      PUEBLO LIBRE                       21  LIMA                               1150121N00  1 4600996 2610470         4428612 5171A2001080300000
01002194000115010115010100000000000000000000000CHORRILLOS                         AV. ALFONSO UGARTE 614                                                          CHORRILLOS                         9   LIMA                               1150108N00  1 4670598 4676114         4441718 6111A2001080300000
01002194001115010115010100000000000000000000000LAS GARDENIAS                      AV. BENAVIDES 5298                                                              SANTIAGO DE SURCO                  L33 LIMA                               1150140N00  1 2752305 2752794         4441724 6140A2001080300000
01002194001315010115010100000000000000000000000LARCO                              AV. LARCO 1099                                                                  MIRAFLORES                         L18 LIMA                               1150122N00  1 4479602 4474140 4465480 4441726 6123A2001080300000
01002194001515010115010100000000000000000000000RICARDO PALMA                      AV. RICARDO PALMA 342                                                           MIRAFLORES                         L18 LIMA                               1150122N00  1 4454965         2411590 4441727 6124A2001080300000
01002194002015010115010100000000000000000000000HIPERMERCADO METRO                 PROLONG. PASEO DE LA REPUBLICA S/N MATELLINI                                    CHORRILLOS                         L9  LIMA                               1150108N00  1 4679183 4676383         4441732 6112A2001080300000
01002194002115010115010100000000000000000000000MOBIL SAN BLAS                     ESQ. TOMAS MARSANO / LOS PROCERES                                               SANTIAGO DE SURCO                  L33 LIMA                               1150140N00  1 2744731                 4441733 6150A2001080300000
01002194002315010115010100000000000000000000000CEMENTOS LIMA                      AV. LIMA 2440. CAMPAMENTO ATOCONGO JOSE GALVEZ                                  VILLA MARIA DEL TRIUNFO            35  LIMA                               1150143N00  1 9541933                 4441734 5177A2001080300000
01002194005515010115010100000000000000000000000EL POLO                            ESQ. AV. ENCALADA / CALLE DOS                                                   SANTIAGO DE SURCO                  33  LIMA                               1150140N00  1 4366796 4366797         4441737 6138A2001080300000
01002194008015010115010100000000000000000000000HOSPITAL FAP                       AV. PETIT THOUARS 4110                                                          MIRAFLORES                         18  LIMA                               1150122N00  1 4406470         4401599 4441738 6128A2001080300000
01002194008215010115010100000000000000000000000HIGUERETA                          AV. NUEVA TOMAS MARSANO CDRA. 28 HIGUERETA                                      SANTIAGO DE SURCO                  33  LIMA                               1150140N00  1 4498824 4496444         4441739 6129A2001080300000
01002199000015010115010100000000000000000000000LIMA                               LAMPA Y UCAYALI                                                                 LIMA                                   LIMA                               1150101N00    4275600                 4275600     C2008040200000
01002200000003010103010100000000000000000000000ABANCAY                            JR. AREQUIPA 218 - 222                                                          ABANCAY                                ABANCAY                            0030101N00 84  321051  243905  321051             A2001080500000
01002205000003020103020100000000000000000000000ANDAHUAYLAS                        AV. PERU 318                                                                    ANDAHUAYLAS                            ANDAHUAYLAS                        0030201N00 84  721029  722095  721029             C2012020200000
01002215000004010104010100000000000000000000000AREQUIPA                           ESQ. SAN JUAN DE DIOS / GRAL. MORAL 101                                         AREQUIPA                               AREQUIPA                           0040101N00 54  283741          215504             C2001082300000
01002215000404010104010100000000000000000000000LA NEGRITA                         AV. VENEZUELA S/N C.C. LA NEGRITA TDAS. 30 - 33                                 AREQUIPA                               AREQUIPA                           1040101N00 54  216502                             A2001080600000
01002215000604010104010100000000000000000000000SAN CAMILO                         CALLE SAN CAMILO 221                                                            AREQUIPA                               AREQUIPA                           1040101N00 54  247527  722601                     A2001080600000
01002220000005010105010100000000000000000000000AYACUCHO                           PORTAL UNION 28 - PLAZA DE ARMAS                                                AYACUCHO                               AYACUCHO                           0050101N00 64  814102  817405  812221             A2001080400000
01002221000005040105040100000000000000000000000HUANTA                             JR. SAN MARTIN NO.124-126                                                       HUANTA                                 HUANTA                             0050401N00 66  322023                  322023  569C2008011700000
01002230999901020101020100000000000000000000000BAGUA                              JR. COMERCIO  532-536, LOTE 31, MZ 220 - PLAZA DE ARMAS                         BAGUA                                  BAGUA                              0010201N00                                        A2014032400000
01002232000001070101070100000000000000000000000BAGUA GRANDE                       JR. CHACHAPOYAS 1978 - BAGUA GRANDE                                             BAGUA GRANDE                           BAGUA GRANDE                       0010701N00 44  774058  774002  774002             C2010021800000
01002235000015020115020100000000000000000000000BARRANCA                           JR. JOSE GALVEZ 321                                                             BARRANCA                               BARRANCA                           0150201N00  1 2352588         2352142             A2001080400000
01002245000006010106010100000000000000000000000CAJAMARCA                          ESQ. CALLE LIMA / APURIMAC 2580                                                 CAJAMARCA                              CAJAMARCA                          0060101N00 44  822742          825622             A2001080400000
01002250000004020104020100000000000000000000000CAMANA                             PLZA. DE ARMAS / 9 DE NOVIEMBRE 139                                             CAMANA                                 CAMANA                             0040201N00 54  571110          571110             A2001080600000
01002251000004052004052000000000000000000000000EL PEDREGAL                        CALLE ZAMACOLA MZ G LT 3 DE VILLA EL PEDREGAL                                   AREQUIPA                               AREQUIPA                           0040101N00     586695                             C2009081400000
01002255000115050115050100000000000000000000000IMPERIAL                           CALLE 28 DE JULIO 430 - 433                                                     CAÑETE                                 CAÑETE                             1150507N00  1 2821575                             C2001082400000
01002260000002120102120100000000000000000000000CARAZ                              JR. DANIEL VILLAR 217                                                           CARAZ                                  CARAZ                              0021201N00 44  791012          791583             C2012020200000
01002265000002080102080100000000000000000000000CASMA                              AV. BOLIVAR 181                                                                 CASMA                                  CASMA                              0020801N00 44  711471          711314             C2010021800000
01002280000119010119010100000000000000000000000CHAUPIMARCA                        CALLE BOLOGNESI 218 -220                                                        CERRO DE PASCO                         CERRO DE PASCO                     1190101N00 64  722151                             A2001080400000
01002283000004041304041300000000000000000000000CORIRE                             PLAZA 28 DE JULIO 104                                                           CORIRE                                 CORIRE                             0040413N00 54  288447          288487             C2001102900000
01002285000008010108010100000000000000000000000CUSCO                              AV. EL SOL 189                                                                  CUSCO                                  CUSCO                              0080101N00 84  235255          224481             A2001080600000
01002285000308010108010100000000000000000000000DIAGONAL CUSCO                     AV. RAMON ZAVALETA 120                                                          CUSCO                                  CUSCO                              1080108N00 84  249594                             C2001080600000
01002290000001010101010100000000000000000000000CHACHAPOYAS                        JR. ORTIZ ARRIETA 576                                                           CHACHAPOYAS                            CHACHAPOYAS                        0010101N00 44  777430  757013                     C2010021800000
01002295000015060515060500000000000000000000000CHANCAY                            CALLE LOPEZ DE ZUÑIGA 445                                                       CHANCAY                                CHANCAY                            0150605N00  1  771040          771004             C2012020200000
01002300000013040113040100000000000000000000000CHEPEN                             ESQ. GONZALES PRADA / SAN PEDRO / JUNIN                                         CHEPEN                                 CHEPEN                             0130401N00 44  561606          532013             A2001080400000
01002305000014010114010100000000000000000000000CHICLAYO                           CALLE BALTA 630                                                                 CHICLAYO                               CHICLAYO                           0140101N00 74  234472          237551             A2001080400000
01002310000202180102180100000000000000000000000BOLOGNESI                          JR. BOLOGNESI 736                                                               CHIMBOTE                               CHIMBOTE                           1021801N00 44  328600          328308             C2001080400000
01002315000011020111020100000000000000000000000CHINCHA                            ESQ. MARISCAL BENAVIDES / CASTILLA 195 - 185                                    CHINCHA                                CHINCHA                            0110201N00 34  261221          267315             A2001080400000
01002315000111020111020100000000000000000000000EL CARMEN                          JR. LIMA 278                                                                    CHINCHA                                CHINCHA                            1110205N00 34  268084          267625             C2001080600000
01002316999906010106010100000000000000000000000CUTERVO                            JR BENJAMIN  DUBLE  439                                                         CUTERVO                                CUTERVO                            0060601N00                                        A2015020400000
01002318000006040106040100000000000000000000000CHOTA                              JR. JOSE OSORES 555                                                             CHOTA                                  CHOTA                              0060401N00 45  841381          841400             C2012020200000
01002335000015080115080100000000000000000000000HUACHO                             AV. 28 DE JULIO 402                                                             HUACHO                                 HUACHO                             0150801N00  1 2326302         2323934             A2001080400000
01002345999913090113090100000000000000000000000HUAMACHUCO                         ESQUINA SAN MARTN 603 Y JR. LEONCIO PRADO 620  624                              HUAMACHUCO                             HUAMACHUCO                         0130901N00    4434840 4434840                     A2014112800000
01002350000009010109010100000000000000000000000HUANCAVELICA                       JR. VIRREY TOLEDO 383                                                           HUANCAVELICA                           HUANCAVELICA                       0090101N00 64  752831  752832  752832             C2012020200000
01002355000012010112010100000000000000000000000HUANCAYO                           CALLE REAL 1013                                                                 HUANCAYO                               HUANCAYO                           0120101N00                                        A2012032000000
01002355000112010112010100000000000000000000000EL TAMBO                           AV. MARISCAL CASTILLA 1201                                                      HUANCAYO                               HUANCAYO                           1120114N00 64  246024  244703  246024             C2001080600000
01002355000212010112010100000000000000000000000CONSTITUCION                       ESQ. REAL / PASEO LA BREÑA 505                                                  HUANCAYO                               HUANCAYO                           1120101N00 64  218712  222098  222098             A2001080400000
01002365000010010110010100000000000000000000000HUANUCO                            ESQ. HUANUCO 699 / DOS DE MAYO 1005                                             HUANUCO                                HUANUCO                            0100101N00 64  512213          513403             A2001080500000
01002370000015060115060100000000000000000000000HUARAL                             ESQ. CALLE DERECHA / LAS ANIMAS 501                                             HUARAL                                 HUARAL                             0150601N00  1 2461139         2461597             A2001080400000
01002375000002010102010100000000000000000000000HUARAZ                             AV. MARISCAL TORIBIO DE LUZURIAGA 691                                           HUARAZ                                 HUARAZ                             0020101N00 44  721692          721633             A2001080400000
01002376000002100102100100000000000000000000000HUARI                              LOTE 4 MZ. I2 BARRIO SAN JUAN                                                   HUARI                                  HUARI                              0021001N00     453377  453420                 3938B2008100100000
01002380000011010111010100000000000000000000000ICA                                ESQ. AV. GRAU / CALLE CALLAO S/N                                                ICA                                    ICA                                0110101N00 34  222845          215665             A2001080400000
01002385000118030118030100000000000000000000000TOWN SITE                          AV. GARIBALDI S/N PUEBLO NUEVO - PACOCHA                                        ILO                                    ILO                                1180301N00 54  781871  686010                     A2001080400000
01002390000016010116010100000000000000000000000IQUITOS                            ESQ. PUTUMAYO / PROSPERO                                                        IQUITOS                                IQUITOS                            0160101N00 94  233115  233838  234466             A2001080500000
01002390000116010116010100000000000000000000000BELEN                              ESQ. ARICA 1100 / 9 DE DICIEMBRE                                                IQUITOS                                IQUITOS                            1160112N00 94  231941                             C2001080600000
01002395000006080106080100000000000000000000000JAEN                               CALLE SIMON BOLIVAR 1292                                                        JAEN                                   JAEN                               0060801N00 44  731178                             A2001080500000
01002400000012040112040100000000000000000000000JAUJA                              JR. JUNIN 785                                                                   JAUJA                                  JAUJA                              0120401N00 64  362011  361614  362429             C2001080600000
01002401000012030312030300000000000000000000000PICHANAKI                          JR.PRIMERO DE MAYO CON JR.MICAELA BASTIDAS NO.501-505                           PICHANAKI                              PICHANAKI                          0120303N00     999999                             C2008011700000
01002403000022060122060100000000000000000000000JUANJUI                            JIRON HUALLAGA 737 CERCADO                                                      JUANJUI                                JUANJUI                            0220601N00    2546533                             C2007050900000
01002405000021110121110100000000000000000000000JULIACA                            MARIANO NUÑEZ 136 - 138                                                         JULIACA                                JULIACA                            0211101N00 54  321011          323360             A2001080600000
01002405000221110121110100000000000000000000000AYAVIRI                            PLZA. ALFONSO UGARTE 501                                                        JULIACA                                JULIACA                            1210801N00 54  863152  247051  863143             C2001080600000
01002410000012030112030100000000000000000000000LA MERCED                          JR. TARMA 311                                                                   LA MERCED                              LA MERCED                          0120301N00 64  531005  531512  531512             C2007060500000
01002415000014030114030100000000000000000000000LAMBAYEQUE                         AV. RAMÓN CASTILLA N° 840                                                       LAMBAYEQUE                             LAMBAYEQUE                         0140301N00                                        C2012060100000
01002420000012080112080100000000000000000000000LA OROYA                           AV. HORACIO ZEVALLOS 421                                                        LA OROYA                               LA OROYA                           0120801N00 64  391191  392424  391458             A2001080400000
01002425000004070104070100000000000000000000000MOLLENDO                           ESQ. COMERCIO 325 / AREQUIPA 330                                                MOLLENDO                               MOLLENDO                           0040701N00 55  534260  533824  533824             C2012020200000
01002430000018010118010100000000000000000000000MOQUEGUA                           CALLE MOQUEGUA 861                                                              MOQUEGUA                               MOQUEGUA                           0180101N00 56  761325          762446             C2008011700000
01002430000118010118010100000000000000000000000CUAJONE                            AV. PLAZA S/N VILLA BOTIFLACA                                                   MOQUEGUA                               MOQUEGUA                           1180101N00 54  878049  571111  878049             A2001080600000
01002435000122010122010100000000000000000000000RIOJA                              JR. ALMIRANTE GRAU 177                                                          MOYOBAMBA                              MOYOBAMBA                          1220801N00 94  558501  558500  558500             C2010021800000
01002440000011030111030100000000000000000000000NAZCA                              ESQ. CALLE LIMA / GRAU                                                          NAZCA                                  NAZCA                              0110301N00 34  522445          522445             C2010021800000
01002445000019030119030100000000000000000000000OXAPAMPA                           JR. BOLIVAR 308                                                                 OXAPAMPA                               OXAPAMPA                           0190301N00 64  762213  762455  762213             A2001080400000
01002450000013070413070400000000000000000000000PACASMAYO                          ESQ. AYACUCHO / HUASCAR / ANCASH                                                PACASMAYO                              PACASMAYO                          0130704N00 44  522921          523092             A2001080400000
01002455000020050120050100000000000000000000000PAITA                              ESQ. PLAZA DE ARMAS / LA MERCED                                                 PAITA                                  PAITA                              0200501N00 74  611384          611153             A2001080400000
01002470000011050111050100000000000000000000000PISCO                              CALLE PEREZ FIGUEROLA 162                                                       PISCO                                  PISCO                              0110501N00 35  532342          532340             A2001080400000
01002475000020010120010100000000000000000000000PIURA                              AV. GRAU 105                                                                    PIURA                                  PIURA                              0200101N00 74  336822          324189             A2001080400000
01002475000320010120010100000000000000000000000CATACAOS                           ESQ. COMERCIO / ICA PLAZA DE ARMAS                                              CATACAOS                               CATACAOS                           0200105N00 74  370274          370869             C2001080600000
01002480000025010125010100000000000000000000000PUCALLPA                           JR. RAYMONDI 404                                                                PUCALLPA                               PUCALLPA                           0250101N00 64  571364  575108  575250             A2001080500000
01002481000025030125030100000000000000000000000AGUAYTIA                           AV SIMON BOLIVAR NRO 208 -JR AGUAYTIA NROS 111 -119 - 127  Y JR LAMAS NRO 119   PADRE ABAD                             AGUAYTIA                           0250301N00                                        C2014072300000
01002485000017010117010100000000000000000000000PUERTO MALDONADO                   AV. DANIEL A. CARRION 201                                                       PUERTO MALDONADO                       PUERTO MALDONADO                   0170101N00 84  571193  351152  571255             C2010021800000
01002495000021010121010100000000000000000000000PUNO                               JR. LIMA 510                                                                    PUNO                                   PUNO                               0210101N00 54  352119          354011             A2001080600000
01002505000008090108090100000000000000000000000QUILLABAMBA                        LIBERTAD 545 - 549 STA. ANA LA CONVENCION                                       QUILLABAMBA                            QUILLABAMBA                        0080901N00 84  281460  351685  281253             A2001080600000
01002513000011030411030400000000000000000000000SAN JUAN DE MARCONA                AV. LOS INCAS S/N                                                               S.J. DE MARCONA                        S.J. DE MARCONA                    0110304N00 34  525012          525287             C2001102900000
01002515000012030512030500000000000000000000000SAN RAMON                          JR TARMA 201                                                                    SAN RAMON                              SAN RAMON                          0120305N00     331111                  331174     C2010021800000
01002525000012060112060100000000000000000000000SATIPO                             JR. MANUEL PRADO 241 - 243                                                      SATIPO                                 SATIPO                             0120601N00 64  545622  545661  545662             C2012020200000
01002526999912060612060600000000000000000000000PANGOA                             AV UCAYALI  323                                                                 SAN MARTIN DE PANGOA                   PANGOA                             0120606N00                                        A2015021800000
01002533000008060108060100000000000000000000000SICUANI                            CALLE 28 DE JULIO 106                                                           SICUANI                                SICUANI                            0080601N00 84  351304  741098  351685             C2010021800000
01002535000020060120060100000000000000000000000SULLANA                            ESQ. SAN MARTIN 685 / SUCRE 362                                                 SULLANA                                SULLANA                            0200601N00 74  502082          504114             A2001080400000
01002540000123010123010100000000000000000000000DOS DE MAYO                        ESQ. P. MELENDEZ 411 / DOS DE MAYO                                              TACNA                                  TACNA                              1230101N00 54  711392  224481                     A2001080600000
01002540000223010123010100000000000000000000000BOLOGNESI                          AV. CORONEL MENDOZA 1898                                                        TACNA                                  TACNA                              1230101N00 44  741106          328308             A2001080500000
01002545000020070120070100000000000000000000000TALARA                             AV. CENTRO CIVICO 147 PARIÑAS                                                   TALARA                                 TALARA                             0200701N00 74  382671          382857             A2001080400000
01002550000022090122090100000000000000000000000TARAPOTO                           JR. MAYNAS 130                                                                  TARAPOTO                               TARAPOTO                           0220901N00 94  522682  522118  522485             A2001080500000
01002555000012070112070100000000000000000000000TARMA                              ESQ. LIMA / PAUCARTAMBO                                                         TARMA                                  TARMA                              0120701N00 64  322149          322263             C2010021800000
01002560000010060110060100000000000000000000000TINGO MARIA                        AV. RAYMONDI 249                                                                TINGO MARIA                            TINGO MARIA                        0100601N00 64  562111          562112             C2001082400000
01002565000023030123030100000000000000000000000TOQUEPALA                          ASIENTO MINERO TOQUEPALA                                                        TOQUEPALA                              TOQUEPALA                          0230301N00 54  686011  713056  686010             C2021091400000
01002570000013010113010100000000000000000000000TRUJILLO                           JR. GAMARRA 562                                                                 TRUJILLO                               TRUJILLO                           0130101N00 44  234639          260610             A2001080400000
01002570000213010113010100000000000000000000000MERCADO MAYORISTA                  AV. VALLEJO 202                                                                 TRUJILLO                               TRUJILLO                           1130101N00 44  234529          234529             A2001080400000
01002570000313010113010100000000000000000000000ESPAÑA                             AV. ESPAÑA 2237                                                                 TRUJILLO                               TRUJILLO                           1130101N00 46  232059          221930             A2001080400000
01002570000413010113010100000000000000000000000PRIMAVERA                          AV. VALCARCEL 235 - 245                                                         TRUJILLO                               TRUJILLO                           1130101N00 44  233417          205692             A2001080400000
01002570000713010113010100000000000000000000000HUSARES DE JUNIN                   ESQ. AV. HUSARES DE JUNIN / LARCO                                               TRUJILLO                               TRUJILLO                           1130101N00 44  205903          205899             A2001080400000
01002575000024010124010100000000000000000000000TUMBES                             CALLE BOLIVAR 261 / TOMAS VASQUEZ 220                                           TUMBES                                 TUMBES                             0240101N00 74  523150          523470             A2001080400000
01002579000013120113120100000000000000000000000V IRU                              AV. VIRU 2162 MZ. D LT. 16-A                                                    VIRU                                   VIRU                               0131201N00 44  525170                  525313  567C2012020200000
01002585000016020116020100000000000000000000000YURIMAGUAS                         CALLE JULIO C. ARANA 143                                                        YURIMAGUAS                             YURIMAGUAS                         0160201N00 94  352194          352108             A2001080500000
01003000999915010115010100000000000000000000000TIENDA LIMA                        JR. DE LA UNION 600                                                             LIMA                               100 LIMA                               0150101N00     426700 4266370 4279937  21920061001C2002031500000
01003001999915010115010100000000000000000000000TDA CAPON                          JR PARURO 800                                                                   LIMA                                   LIMA                               0150101N00    4273694         4270653 219200060011C2007111900000
01003002999915010115010100000000000000000000000CERRADA                            LIMA                                                                            CERRADA                                CERRADA                            0150101N00                                        B2002031500000
01003003999915010115010100000000000000000000000TIENDA M.CAPAC                     AV MANCO CAPAC 401                                                              LIMA                                   LIMA                               0150101N00 14 4245211         4236215 219200060031C2002112000000
01003004999915010115010100000000000000000000000CERRADA                            LIMA                                                                            CERRADA                                CERRADA                            0150101N00                                        B2002031500000
01003005999915010115010100000000000000000000000CERRADA                            LIMA                                                                            CERRADA                                CERRADA                            0150101N00                                        B2001101700000
01003006999915010115010100000000000000000000000CERRADA                            LIMA                                                                            CERRADA                                CERRADA                            0150101N00                                        B2001101700000
01003007999915010115010100000000000000000000000TIENDA BASADRE                     AV. JORGE BASADRE GROHMAN 312 - 316                                             LIMA                                   LIMA                               0150101N00    4411985         4412126 219200060071C2010070900000
01003008999915010115010100000000000000000000000CERRADA                            LIMA                                                                            CERRADA                                CERRADA                            0150101N00                                        B2001101700000
01003009999915010115010100000000000000000000000TIENDA A. MARQUEZ                  AV ARNALDO MARQUEZ 1400                                                         LIMA                                   LIMA                               0150101N00    4243395        42442690 219200060091C2002112000000
01003010999915010115010100000000000000000000000CERRADA                            LIMA                                                                            CERRADA                                CERRADA                            0150101N00                                        B2001101700000
01003011999915010115010100000000000000000000000TIENDA P.THOUARS                   AV PETIT THOAURS 2100                                                           LIMA                                   LIMA                               0150101N00    4171028         4715761 219200060111C2002112000000
01003012999915010115010100000000000000000000000CERRADA                            LIMA                                                                            CERRADA                                CERRADA                            0150101N00                                        B2001101700000
01003013999915010115010100000000000000000000000CERRADA                            LIMA                                                                            CERRADA                                CERRADA                            0150101N00                                        B2001101700000
01003014999915010115010100000000000000000000000CERRADA                            LIMA                                                                            CERRADA                                CERRADA                            0150101N00                                        B2001101700000
01003015999915010115010100000000000000000000000CERRADA                            LIMA                                                                            CERRADA                                CERRADA                            0150101N00                                        B2001101700000
01003016999915010115010100000000000000000000000CERRADA                            LIMA                                                                            CERRADA                                CERRADA                            0150101N00                                        B2001101700000
01003017999915010115010100000000000000000000000CERRADA                            LIMA                                                                            CERRADA                                CERRADA                            0150101N00                                        B2001101700000
01003018999915010115010100000000000000000000000CERRADA                            LIMA                                                                            CERRADA                                CERRADA                            0150101N00                                        B2001101700000
01003019999915010115010100000000000000000000000CERRADA                            LIMA                                                                            CERRADA                                CERRADA                            0150101N00                                        B2001101700000
01003020999915010115010100000000000000000000000CERRADA                            LIMA                                                                            CERRADA                                CERRADA                            0150101N00                                        B2001101700000
01003021999915010115010100000000000000000000000CERRADA                            LIMA                                                                            CERRADA                                CERRADA                            0150101N00                                        B2001101700000
01003022999915010115010100000000000000000000000CERRADA                            LIMA                                                                            CERRADA                                CERRADA                            0150101N00                                        B2001101700000
01003023999915010115010100000000000000000000000TIENDA SUCRE                       AV. SUCRE 598                                                                   LIMA                                   LIMA                               0150101N00    4611331         4611572 219200060231C2002112000000
01003024999915010115010100000000000000000000000TIENDA VENEZUELA                   AV. VENEZUELA 1251                                                              LIMA                                   LIMA                               0150101N00    4236483         4311842 219200060241C2002112000000
01003025999915010115010100000000000000000000000CERRADA                            LIMA                                                                            CERRADA                                CERRADA                            0150101N00                                        B2001101700000
01003026999915010115010100000000000000000000000CERRADA                            LIMA                                                                            CERRADA                                CERRADA                            0150101N00                                        B2001101700000
01003027999915010115010100000000000000000000000CERRADA                            LIMA                                                                            CERRADA                                CERRADA                            0150101N00                                        B2001101700000
01003028999915010115010100000000000000000000000CERRADA                            LIMA                                                                            CERRADA                                CERRADA                            0150101N00                                        B2001101700000
01003029999915010115010100000000000000000000000CERRADA                            LIMA                                                                            CERRADA                                CERRADA                            0150101N00                                        B2001101700000
01003030999915010115010100000000000000000000000CERRADA                            LIMA                                                                            CERRADA                                CERRADA                            0150101N00                                        B2001101700000
01003031999915010115010100000000000000000000000CERRADA                            LIMA                                                                            CERRADA                                CERRADA                            0150101N00                                        B2001101700000
01003033999915010115010100000000000000000000000CERRADA                            LIMA                                                                            CERRADA                                CERRADA                            0150101N00                                        B2001101700000
01003034999915010115010100000000000000000000000CERRADA                            LIMA                                                                            CERRADA                                CERRADA                            0150101N00                                        B2001101700000
01003036999915010115010100000000000000000000000CERRADA                            LIMA                                                                            CERRADA                                CERRADA                            0150101N00                                        B2001101700000
01003037999915010115010100000000000000000000000CERRADA                            LIMA                                                                            CERRADA                                CERRADA                            0150101N00                                        B2001101700000
01003038999915010115010100000000000000000000000CERRADA                            LIMA                                                                            CERRADA                                CERRADA                            0150101N00                                        B2001101700000
01003039999915010115010100000000000000000000000CERRADA                            LIMA                                                                            CERRADA                                CERRADA                            0150101N00                                        B2001101700000
01003041999915010115010100000000000000000000000TIENDA R. NAVARRETE                AV. RIVERA NAVARRETE 857                                                        LIMA                                   LIMA                               0150101N00    4421400         4421653 219200060411C2002091100000
01003042999915010115010100000000000000000000000TIENDA P. SAN MIGUEL               AV. LA MARINA CON DINTHILAC                                                     LIMA                                   LIMA                               0150101N00    4640000         4640280 219200060421C2002112000000
01003043999915010115010100000000000000000000000TIENDA MOLICENTRO                  AV. LA UNIVERDIDAD 1838 TDA. 1                                                  LIMA                                   LIMA                               0150101N00    4790680         4790303 219200060431C2002112000000
01003044999915010115010100000000000000000000000CERRADA                            LIMA                                                                            CERRADA                                CERRADA                            0150101N00                                        B2001101700000
01003045999915010115010100000000000000000000000TIENDA CHACARILLA                  CALLE MONTE ROSA 120 C.C. CH.                                                   LIMA                                   LIMA                               0150101N00    3721261         3721262 219200060451C2002112000000
01003046999915010115010100000000000000000000000TIENDA HIGUERETA                   AV. BENAVIDES 3674                                                              LIMA                                   LIMA                               0150101N00    2161020         4492887 219200060461C2002112000000
01003047999915010115010100000000000000000000000TIENDA SAN FELIPE                  C.C. SAN FELIPE TDA. 109 - 111                                                  LIMA                                   LIMA                               0150101N00   46309990         4634340 219200060471C2002112000000
01003048999915010115010100000000000000000000000TIENDA FIORI                       C.C. FIORI 110 - 111                                                            LIMA                                   LIMA                               0150101N00    5341355         5341477 219200060481C2002112000000
01003049999915010115010100000000000000000000000TIENDA SAN LUIS                    AV. CIRCUNVALACION 1879                                                         LIMA                                   LIMA                               0150101N00    3260258         3260083 219200060491C2002112000000
01003050999915010115010100000000000000000000000CERRADA                            LIMA                                                                            CERRADA                                CERRADA                            0150101N00                                        B2001101700000
01003051999915010115010100000000000000000000000CERRADA                            LIMA                                                                            CERRADA                                CERRADA                            0150101N00                                        B2001101700000
01003052999915010115010100000000000000000000000TIENDA STA. ANITA                  AV. NICOLAS AYLLON CON BOLOGNESI                                                LIMA                                   LIMA                               0150101N00    3620762         3622322 219200060521C2002112000000
01003053999915010115010100000000000000000000000CERRADA                            LIMA                                                                            CERRADA                                CERRADA                            0150101N00                                        B2001101700000
01003054999915010115010100000000000000000000000CERRADA                            LIMA                                                                            CERRADA                                CERRADA                            0150101N00                                        B2001101700000
01003055999915010115010100000000000000000000000CERRADA                            LIMA                                                                            CERRADA                                CERRADA                            0150101N00                                        B2001101700000
01003056999915010115010100000000000000000000000TIENDA E. FAUCETT                  AV. FAUCETT 216                                                                 LIMA                                   LIMA                               0150101N00    4511821         4517516 219200060561C2002112000000
01003057999915010115010100000000000000000000000TIENDA DASSO                       CALLE MIGUEL DASSO 143-147-151                                                  LIMA                                   LIMA                               0150101N00    4417751         2223934 219200060571C2012030700000
01003058999915010115010100000000000000000000000CERRADA                            LIMA                                                                            CERRADA                                CERRADA                            0150101N00                                        B2001101700000
01003059999915010115010100000000000000000000000TIENDA EL POLO                     AV. EL POLO 706                                                                 LIMA                                   LIMA                               0150101N00    4373907 4378000 4358213 219200060591C2002112000000
01003060999915010115010100000000000000000000000CERRADA                            LIMA                                                                            CERRADA                                CERRADA                            0150101N00                                        B2001101700000
01003061999915010115010100000000000000000000000CERRADA                            LIMA                                                                            CERRADA                                CERRADA                            0150101N00                                        B2001101700000
01003062999915010115010100000000000000000000000CERRADA                            LIMA                                                                            CERRADA                                CERRADA                            0150101N00                                        B2001101700000
01003063999915010115010100000000000000000000000CERRADA                            LIMA                                                                            CERRADA                                CERRADA                            0150101N00                                        B2001101700000
01003064999915010115010100000000000000000000000CERRADA                            LIMA                                                                            CERRADA                                CERRADA                            0150101N00                                        B2001101700000
01003065999915010115010100000000000000000000000CERRADA                            LIMA                                                                            CERRADA                                CERRADA                            0150101N00                                        B2001101700000
01003066999915010115010100000000000000000000000CERRADA                            LIMA                                                                            CERRADA                                CERRADA                            0150101N00                                        B2001101700000
01003067999915010115010100000000000000000000000TIENDA SAN BORJA                   AV. SAN BORJA 598 ESQUINA AV AVIACION CUADRA 31                                 LIMA                                   LIMA                               0150101N00    4754147         4751394 219200060671C2010122200000
01003068999915010115010100000000000000000000000CERRADA                            LIMA                                                                            CERRADA                                CERRADA                            0150101N00                                        B2001101700000
01003069999915010115010100000000000000000000000CERRADA                            LIMA                                                                            CERRADA                                CERRADA                            0150101N00                                        B2001101700000
01003070999915010115010100000000000000000000000CERRADA                            LIMA                                                                            CERRADA                                CERRADA                            0150101N00                                        B2001101800000
01003071999915010115010100000000000000000000000CERRADA                            LIMA                                                                            CERRADA                                CERRADA                            0150101N00                                        B2001101700000
01003072999915010115010100000000000000000000000CERRADA                            LIMA                                                                            CERRADA                                CERRADA                            0150101N00                                        B2001101700000
01003073999915010115010100000000000000000000000CERRADA                            LIMA                                                                            CERRADA                                CERRADA                            0150101N00                                        B2001101700000
01003074999915010115010100000000000000000000000CERRADA                            LIMA                                                                            CERRADA                                CERRADA                            0150101N00                                        B2001101700000
01003075999915010115010100000000000000000000000TIENDA STA. ROSA                   AV. FAUCETT CDRA. 30 S/N                                                        LIMA                                   LIMA                               0150101N00    5756565         5755052 219200060751C2002112000000
01003076999915010115010100000000000000000000000TIENDA LAS ARTES                   AV. SAN LUIS CON LAS ARTES                                                      LIMA                                   LIMA                               0150101N00    3461591         3461531 219200060761C2002112000000
01003077999915010115010100000000000000000000000CERRADA                            LIMA                                                                            CERRADA                                CERRADA                            0150101N00                                        B2001101700000
01003078999915010115010100000000000000000000000CERRADA                            LIMA                                                                            CERRADA                                CERRADA                            0150101N00                                        B2001101700000
01003079999915010115010100000000000000000000000CERRADA                            LIMA                                                                            CERRADA                                CERRADA                            0150101N00                                        B2001101700000
01003080999915010115010100000000000000000000000CERRADA                            LIMA                                                                            CERRADA                                CERRADA                            0150101N00                                        B2001101700000
01003081999915010115010100000000000000000000000CERRADA                            LIMA                                                                            CERRADA                                CERRADA                            0150101N00                                        B2001101700000
01003082999915010115010100000000000000000000000TIENDA HABICH                      AV. HABICH 499                                                                  LIMA                                   LIMA                               0150101N00    4821809         4821940 219200060821C2002112000000
01003083999915010115010100000000000000000000000CERRADA                            LIMA                                                                            CERRADA                                CERRADA                            0150101N00                                        B2001101700000
01003084999915010115010100000000000000000000000TIENDA MEXICO                      AV MEXICO 558                                                                   LIMA                                   LIMA                               0150101N00                            2192000     C2007102300000
01003085999915010115010100000000000000000000000TIENDA ARGENTINA                   AV ARGENTINA 327-339 ESQ JR PACASMAYO C/AV G.DANSEY                             LIMA                                   LIMA                               0150101N00                            2192000     A2007071100000
01003086999915010115010100000000000000000000000MALECON MIRAFLORES                 AV. LARCO N°1020 ESQUINA CON CALLE MANCO CAPAC MIRAFLORES                       LIMA                                   LIMA                               0150122N00                                        A2010072300000
01003087999915010115010100000000000000000000000ARENALES                           AV GENERAL ARENALES 784 SANTA BEATRIZ                                           LIMA                                   LIMA                               0150101N00                            2192000     A2007070200000
01003089999915010115010100000000000000000000000TIENDA VENTANILLA                  AV MALECON ANDRES CACERES, MZA C3 L20, EX ZONA COMERC.                          LIMA                                   LIMA                               0150101N00                            2192000     C2008030500000
01003090999915010115010100000000000000000000000TIENDA REVOLUCION                  AV REVOLUCION 1830 MZ E LT 9 2DO SECTOR VILLA EL SALVAD                         LIMA                                   LIMA                               0150101N00                                        A2008110300000
01003091999915010115010100000000000000000000000TDA GRAN CHIMU                     AV GRAN CHIMU 831-833 ZARATE                                                    LIMA                                   LIMA                               0150101N00                            2192000     C2008030500000
01003093999915010115010100000000000000000000000TIENDA OVALO SANTA ANITA           LT 18 MZ B1 CL LAS ALONDRAS 385 SANTA ANITA                                     LIMA                                   LIMA                               0150101N00                            2192000     C2008030500000
01003094999915010115010100000000000000000000000EL AGUSTINO                        AV RIVAGUERO 1284 1296 AAHH PROVIVIENDA-EL AGUSTINO                             LIMA                                   LIMA                               0150101N00                            2192000     A2008021100000
01003095999915010115010100000000000000000000000TIENDA INDEPENDENCIA               AV CARLOS YZAGUIRRE 124 INDEPENDENCIA                                           LIMA                                   LIMA                               0150101N00                                        C2008061300000
01003096999915010115010100000000000000000000000TIENDA HUAYCAN                     AV 15 DE JULIO, L-16, PPJJ PROY ESPECIAL HUAYCAN, ATE                           LIMA                                   LIMA                               0150101N00                            2192000     C2008030500000
01003098999915010115010100000000000000000000000TIENDA LIMA CARGO CITY             AV ELMER FAUCETT 2121 CALLAO                                                    LIMA                                   LIMA                               0150101N00                                        A2008053000000
01003100999915010115010100000000000000000000000TIENDA LIMA                        JR. DE LA UNION 600                                                             LIMA                                   LIMA                               0150101N00    4267000 4266370 4279937 219200061001C2002102200000
01003101999915010115010100000000000000000000000CERRADA                            LIMA                                                                            CERRADA                                CERRADA                            0150101N00                                        B2001101700000
01003102999915010115010100000000000000000000000TIENDA GAMBETTA                    AV FAUCETT 6000 CALLAO                                                          LIMA                                   LIMA                               0150101N00                            2192000     A2007092400000
01003103999915010115010100000000000000000000000CERRADA                            LIMA                                                                            CERRADA                                CERRADA                            0150101N00                                        B2001101700000
01003104999915010115010100000000000000000000000TIENDA LAS GARDENIAS               AV. BENAVIDES 5100 TDA. 11                                                      LIMA                                   LIMA                               0150101N00    2750605         2750486 219200061041C2002112000000
01003105999915010115010100000000000000000000000CERRADA                            LIMA                                                                            CERRADA                                CERRADA                            0150101N00                                        B2001101700000
01003106999915010115010100000000000000000000000TIENDA REDUCTO                     CENTRO COMERCIAL VASCO NU¹EZ DE BALBOA 757                                      LIMA                                   LIMA                               0150101N00                                        A2008062600000
01003107999915010115010100000000000000000000000TIENDA MIRAFLORES                  AV. LARCO 690                                                                   LIMA                                   LIMA                               0150101N00    4468208 446205244432200 219200061071C2008120900000
01003108999915010115010100000000000000000000000TIENDA PARDO                       AV. PARDO 413                                                                   LIMA                                   LIMA                               0150101N00    2415886         2413243 219200061081C2002112000000
01003109999915010115010100000000000000000000000TIENDA O. GUTIERREZ                PSJE. DAMMERT 105                                                               LIMA                                   LIMA                               0150101N00    4223756         4223883 219200061091C2002112000000
01003110999915010115010100000000000000000000000CERRADA                            LIMA                                                                            CERRADA                                CERRADA                            0150101N00                                        B2001101700000
01003111999915010115010100000000000000000000000TIENDA SURQUILLO                   AV ANGAMOS ESTE 1083-1099 SURQUILLO                                             LIMA                                   LIMA                               0150101N00                            2192000     C2008030500000
01003112999915050215050200000000000000000000000INTERBANK CAFÉ                     CENTRO COMERCIAL BOULEVARD SUR PLAZA ALTURA DEL KILOMETRO 97.5 PANAMERICANA SUR SAN VICENTE DE CANETE                  ASIA                               0150502N00                                        C2021091400000
01003113999915010115010100000000000000000000000CERRADA                            LIMA                                                                            CERRADA                                CERRADA                            0150101N00                                        B2001101700000
01003114999915010115010100000000000000000000000CERRADA                            LIMA                                                                            CERRADA                                CERRADA                            0150101N00                                        B2001101700000
01003115999915010115010100000000000000000000000TIENDA BARRANCO                    AV. GRAU 300                                                                    LIMA                                   LIMA                               0150101N00    4774075         4774024 219200061151C2002112000000
01003116999915010115010100000000000000000000000CERRADA                            LIMA                                                                            CERRADA                                CERRADA                            0150101N00                                        B2001101700000
01003117999915010115010100000000000000000000000TIENDA MESA REDONDA                JR ANDAHUAYLAS 983 CERCADO DE LIMA                                              LIMA                                   LIMA                               0150101N00                                        A2008121500000
01003118999915010115010100000000000000000000000TIENDA MONEY CORPAC                CALLE REMIGTON 151-159 CORPAC SAN BORJA                                         LIMA                                   LIMA                               0150101N00                            2192000     C2008030500000
01003119999915010115010100000000000000000000000TIENDA SAN BORJA NORTE             AV AVIACIìN 2699 ESQUINA CON SAN BORJA NORTE                                    LIMA                                   LIMA                               0150101N00                                        A2008111900000
01003120999915010115010100000000000000000000000TIENDA CAQUETA                     AV CAQUETA N900-902-920 Y TOMAS MOLLA N698 RIMAC                                LIMA                                   LIMA                               0150101N00                                        A2008062500000
01003121999915010115010100000000000000000000000TIENDA SAN SALVADOR                AV PERU 2290 2286 DISTRITO DE SAN MARTIN                                        LIMA                                   LIMA                               0150101N00                                        A2008091800000
01003122999915010115010100000000000000000000000TIENDA BOLIVAR                     AV BOLIVAR 970 Y 970 B PUEBLO LIBRE                                             LIMA                                   LIMA                               0150101N00                                        A2008112800000
01003124999915010115010100000000000000000000000MONEY EXCHANGE SHERATON            AV PASEO DE LA REPUBLICA 170 LIMA                                               LIMA                                   LIMA                               0150101N00                            2192000     B2007121400000
01003126999915010115010100000000000000000000000TIENDA JOCKEY PLAZA                C.C. JOCKEY PLAZA CF B3                                                         LIMA                                   LIMA                               0150101N00    4372666 4374103 4374104 219200061261C2012091300000
01003127999915010115010100000000000000000000000TIENDA MIRAFLORES                  AV ARAMBURU 144 MIRAFLORES                                                      LIMA                                   LIMA                               0150101N00                                        C2009042100000
01003128999915010115010100000000000000000000000TIENDA REGATAS                     AV. MALECON DE LA RIVER S/N                                                     LIMA                                   LIMA                               0150101N00    2515937         2515934 219200061281C2002112000000
01003129999915010115010100000000000000000000000TIENDA PROSEGUR                    AV. MORRO SOLAR 1030                                                            LIMA                                   LIMA                               0150101N00    2754971         2751644 219200061291C2002112000000
01003130999915010115010100000000000000000000000CERRADA                            LIMA                                                                            CERRADA                                CERRADA                            0150101N00                                        B2001101800000
01003131999915010115010100000000000000000000000TIENDA PEZET                       AV. PEZET 1405                                                                  LIMA                                   LIMA                               0150101N00    2642292         2641540 219200061311C2002112000000
01003132999915010115010100000000000000000000000INEN                               AV. PRIMAVERA 2520                                                              LIMA                                   LIMA                               0150101N00                    2719074 219200061321C2002112000000
01003133999915010115010100000000000000000000000MINISTERIO RREE                    JR LAMPA 535 1 PISO                                                             LIMA                                   LIMA                               0150101N00                    4270010 219200061331C2002112000000
01003134999915010115010100000000000000000000000RAUL FERRERO                       RAUL FERRERO 1313                                                               LIMA                                   LIMA                               0150101N00    4952246         4952245 219200061341C2002112000000
01003135999915010115010100000000000000000000000TIENDA ESPECIAL U. SAN MARTIN      UNIVERSIDAD SAN MARTIN                                                          LIMA                                   LIMA                               0150101N00    2192000                 2192000     C2002112000000
01003136999915010115010100000000000000000000000MEGA PLAZA                         ALFREDO MENDIOLA 3698 TDA 1-13 PANAMERICANA NORTE                               LIMA                                   LIMA                               0150101N00    5235018 5235019         2192000 6136A2002112900000
01003137999915010115010100000000000000000000000TIENDA UPC                         PROLONG. PRIMAVERA 2390                                                         LIMA                                   LIMA                               0150101N00    3450302         3450302 2192000 6137A2003040700000
01003138999915010115010100000000000000000000000COMAS                              AV TUPAC AMARU 1029 COMAS                                                       LIMA                                   LIMA                               0150101N00                           2192000061381A2004111800000
01003139999915010115010100000000000000000000000SAN JUAN DE LURIGANCHO             AV PROCERES DE INDEPENDENCIA 1629                                               LIMA                                   LIMA                               0150101N00                           2192000061391A2004111800000
01003140999915010115010100000000000000000000000TIENDA AV. PERU                    AV PERU 3448 3450 3452 SAN MARTIN DE PORRES                                     LIMA                                   LIMA                               0150101N00                            2192000     C2007061400000
01003141999915010115010100000000000000000000000NICOLAS ARRIOLA                    AV NICOLAS ARRIOLA 569-571 LA VICTORIA                                          LIMA                                   LIMA                               0150101N00                           21920000 6141A2004111800000
01003142999915010115010100000000000000000000000BENAVIDES                          AV BENAVIDES 1241 MIRAFLORES                                                    LIMA                                   LIMA                               0150101N00                           2192000061421A2004111800000
01003143999915010115010100000000000000000000000CHORRILLOS                         AV HUAYLAS 523                                                                  LIMA                                   LIMA                               0150101N00                           2192000061431A2004111800000
01003144999915010115010100000000000000000000000LAP LIMA AIRPORT PARTNERS          AV. ELMER FAUCETT S/N CALLAO AEROPUERTO JORGE CHAVEZ                            LIMA                                   LIMA                               0150101N00                            2192000     A2005012600000
01003145999915010115010100000000000000000000000MONEY EXCHANGE LAP                 AV. ELMER FAUCETT S/N CALLAO AEROPUERTO JORGE CHAVEZ                            LIMA                                   LIMA                               0150101N00                            2192000     A2005012600000
01003147999915010115010100000000000000000000000PLAZA SAN MIGUEL                   CENTRO COMERCIAL PLAZA SAN MIGUEL                                               LIMA                                   LIMA                               0150101N00                            2192000     A2005031000000
01003148999915010115010100000000000000000000000BELAUNDE COMAS                     AV VICTOR ANDRES BELAUNDE OESTE 239 241 MZ R LT 8                               LIMA                                   LIMA                               0150101N00                            2192000     A2007073100000
01003149999915010115010100000000000000000000000LOS OLIVOS - PRO                   AV ALFREDO MENDIOLA 7883 LOS OLIVOS                                             LIMA                                   LIMA                               0150101N00                            2192000     A2007070200000
01003150999915010115010100000000000000000000000TIENDA CANTO GRANDE                AV CANTO GRANDE 3636 S.J.L.                                                     LIMA                                   LIMA                               0150101N00                            2192000     A2007092400000
01003151999915010115010100000000000000000000000TIENDA MENDIOLA LOS OLIVOS         AV ALFREDO MENDIOLA 3779 3783 DE LA URB PAN. NORTE                              LIMA                                   LIMA                               0150101N00                            2192000     C2008030500000
01003152999915010115010100000000000000000000000TIENDA MM VIVANDA LA MOLINA        LA RINCONADA ALTA S/N LT 1 SECCION H                                            LIMA                                   LIMA                               0150101N00                                        A2011021800000
01003154999915010115010100000000000000000000000TIENDA GAMARRA                     PARQUE CANEPA S/N                                                               LIMA                                   LIMA                               0150101N00                            2192000     C2006122100000
01003155999915010115010100000000000000000000000TIENDA MINKA                       SUPERMERCADO MINKA AV ARGENTINA 3093                                            LIMA                                   LIMA                               0150101N00                            2192000     A2006041700000
01003156999915010115010100000000000000000000000BAZAR NAVAL                        AV VENEZUELA CDRA 36 S/N BAZAR DE LA MARINA DE GUERRA                           LIMA                                   LIMA                               0150101N00                            2192000     A2006092100000
01003157999915010115010100000000000000000000000TIENDA SAN JUAN DE MIRAFLORES      AV LOS HEROES 492 S.J.M.                                                        LIMA                                   LIMA                               0150101N00                            2192000     A2007092400000
01003158999915010115010100000000000000000000000TIENDA MAGDALENA                   JR LEONCIO PRADO 890 MAGDALENA                                                  LIMA                                   LIMA                               0150101N00                                        A2008110300000
01003159999915010115010100000000000000000000000TIENDA ALCAZAR RIMAC               AV ALCAZAR 790-792 Y CALLE 14 # 104 URB LA FLORIDA                              LIMA                                   LIMA                               0150101N00                            2192000     C2008030500000
01003160999915010115010100000000000000000000000TIENDA LURIN                       MERCEDES                                                                        LIMA                                   LIMA                               0150101N00                            2192000     C2007070400000
01003161999915010115010100000000000000000000000TIENDA PUENTE PIEDRA               LT 3 MZ C URB SANTO DOMINGO                                                     LIMA                                   LIMA                               0150101N00                            2192000     A2007092400000
01003162999915010115010100000000000000000000000TIENDA PLAZA LIMA SUR              AV PASEO DE LA REPUBLICA S/N CENTRO COMERCIAL PLAZA SUR                         LIMA                                   LIMA                               0150108N00                                        C2010060700000
01003163999915010115010100000000000000000000000TIENDA ATE                         L-16 MZ-C, DE LA ASOC. PRO-VIVIENDA PORVENIR VITARTE                            LIMA                                   LIMA                               0150101N00                            2192000     C2008030500000
01003164999915010115010100000000000000000000000TIENDA MIRAFLORES RICARDO PALMA    AV RICARDO PALMA CDRA 4 Y CALLE ALFONSO UGARTE MIRAFLOR                         LIMA                                   LIMA                               0150101N00                                        A2008120900000
